{"abi":[{"type":"constructor","inputs":[{"name":"_inclusionDelay","type":"uint8","internalType":"uint8"},{"name":"_feeInGwei","type":"uint64","internalType":"uint64"},{"name":"_inbox","type":"address","internalType":"address"},{"name":"_inboxWrapper","type":"address","internalType":"address"}],"stateMutability":"nonpayable"},{"type":"function","name":"acceptOwnership","inputs":[],"outputs":[],"stateMutability":"nonpayable"},{"type":"function","name":"consumeOldestForcedInclusion","inputs":[{"name":"_feeRecipient","type":"address","internalType":"address"}],"outputs":[{"name":"inclusion_","type":"tuple","internalType":"struct IForcedInclusionStore.ForcedInclusion","components":[{"name":"blobHash","type":"bytes32","internalType":"bytes32"},{"name":"feeInGwei","type":"uint64","internalType":"uint64"},{"name":"createdAtBatchId","type":"uint64","internalType":"uint64"},{"name":"blobByteOffset","type":"uint32","internalType":"uint32"},{"name":"blobByteSize","type":"uint32","internalType":"uint32"},{"name":"blobCreatedIn","type":"uint64","internalType":"uint64"}]}],"stateMutability":"nonpayable"},{"type":"function","name":"feeInGwei","inputs":[],"outputs":[{"name":"","type":"uint64","internalType":"uint64"}],"stateMutability":"view"},{"type":"function","name":"getForcedInclusion","inputs":[{"name":"index","type":"uint256","internalType":"uint256"}],"outputs":[{"name":"","type":"tuple","internalType":"struct IForcedInclusionStore.ForcedInclusion","components":[{"name":"blobHash","type":"bytes32","internalType":"bytes32"},{"name":"feeInGwei","type":"uint64","internalType":"uint64"},{"name":"createdAtBatchId","type":"uint64","internalType":"uint64"},{"name":"blobByteOffset","type":"uint32","internalType":"uint32"},{"name":"blobByteSize","type":"uint32","internalType":"uint32"},{"name":"blobCreatedIn","type":"uint64","internalType":"uint64"}]}],"stateMutability":"view"},{"type":"function","name":"getOldestForcedInclusionDeadline","inputs":[],"outputs":[{"name":"","type":"uint256","internalType":"uint256"}],"stateMutability":"view"},{"type":"function","name":"head","inputs":[],"outputs":[{"name":"","type":"uint64","internalType":"uint64"}],"stateMutability":"view"},{"type":"function","name":"impl","inputs":[],"outputs":[{"name":"","type":"address","internalType":"address"}],"stateMutability":"view"},{"type":"function","name":"inNonReentrant","inputs":[],"outputs":[{"name":"","type":"bool","internalType":"bool"}],"stateMutability":"view"},{"type":"function","name":"inbox","inputs":[],"outputs":[{"name":"","type":"address","internalType":"contract ITaikoInbox"}],"stateMutability":"view"},{"type":"function","name":"inboxWrapper","inputs":[],"outputs":[{"name":"","type":"address","internalType":"address"}],"stateMutability":"view"},{"type":"function","name":"inclusionDelay","inputs":[],"outputs":[{"name":"","type":"uint8","internalType":"uint8"}],"stateMutability":"view"},{"type":"function","name":"init","inputs":[{"name":"_owner","type":"address","internalType":"address"}],"outputs":[],"stateMutability":"nonpayable"},{"type":"function","name":"isOldestForcedInclusionDue","inputs":[],"outputs":[{"name":"","type":"bool","internalType":"bool"}],"stateMutability":"view"},{"type":"function","name":"lastProcessedAtBatchId","inputs":[],"outputs":[{"name":"","type":"uint64","internalType":"uint64"}],"stateMutability":"view"},{"type":"function","name":"owner","inputs":[],"outputs":[{"name":"","type":"address","internalType":"address"}],"stateMutability":"view"},{"type":"function","name":"pause","inputs":[],"outputs":[],"stateMutability":"nonpayable"},{"type":"function","name":"paused","inputs":[],"outputs":[{"name":"","type":"bool","internalType":"bool"}],"stateMutability":"view"},{"type":"function","name":"pendingOwner","inputs":[],"outputs":[{"name":"","type":"address","internalType":"address"}],"stateMutability":"view"},{"type":"function","name":"proxiableUUID","inputs":[],"outputs":[{"name":"","type":"bytes32","internalType":"bytes32"}],"stateMutability":"view"},{"type":"function","name":"queue","inputs":[{"name":"id","type":"uint256","internalType":"uint256"}],"outputs":[{"name":"blobHash","type":"bytes32","internalType":"bytes32"},{"name":"feeInGwei","type":"uint64","internalType":"uint64"},{"name":"createdAtBatchId","type":"uint64","internalType":"uint64"},{"name":"blobByteOffset","type":"uint32","internalType":"uint32"},{"name":"blobByteSize","type":"uint32","internalType":"uint32"},{"name":"blobCreatedIn","type":"uint64","internalType":"uint64"}],"stateMutability":"view"},{"type":"function","name":"renounceOwnership","inputs":[],"outputs":[],"stateMutability":"nonpayable"},{"type":"function","name":"resolver","inputs":[],"outputs":[{"name":"","type":"address","internalType":"address"}],"stateMutability":"view"},{"type":"function","name":"storeForcedInclusion","inputs":[{"name":"blobIndex","type":"uint8","internalType":"uint8"},{"name":"blobByteOffset","type":"uint32","internalType":"uint32"},{"name":"blobByteSize","type":"uint32","internalType":"uint32"}],"outputs":[],"stateMutability":"payable"},{"type":"function","name":"tail","inputs":[],"outputs":[{"name":"","type":"uint64","internalType":"uint64"}],"stateMutability":"view"},{"type":"function","name":"transferOwnership","inputs":[{"name":"newOwner","type":"address","internalType":"address"}],"outputs":[],"stateMutability":"nonpayable"},{"type":"function","name":"unpause","inputs":[],"outputs":[],"stateMutability":"nonpayable"},{"type":"function","name":"upgradeTo","inputs":[{"name":"newImplementation","type":"address","internalType":"address"}],"outputs":[],"stateMutability":"nonpayable"},{"type":"function","name":"upgradeToAndCall","inputs":[{"name":"newImplementation","type":"address","internalType":"address"},{"name":"data","type":"bytes","internalType":"bytes"}],"outputs":[],"stateMutability":"payable"},{"type":"event","name":"AdminChanged","inputs":[{"name":"previousAdmin","type":"address","indexed":false,"internalType":"address"},{"name":"newAdmin","type":"address","indexed":false,"internalType":"address"}],"anonymous":false},{"type":"event","name":"BeaconUpgraded","inputs":[{"name":"beacon","type":"address","indexed":true,"internalType":"address"}],"anonymous":false},{"type":"event","name":"ForcedInclusionConsumed","inputs":[{"name":"forcedInclusion","type":"tuple","indexed":false,"internalType":"struct IForcedInclusionStore.ForcedInclusion","components":[{"name":"blobHash","type":"bytes32","internalType":"bytes32"},{"name":"feeInGwei","type":"uint64","internalType":"uint64"},{"name":"createdAtBatchId","type":"uint64","internalType":"uint64"},{"name":"blobByteOffset","type":"uint32","internalType":"uint32"},{"name":"blobByteSize","type":"uint32","internalType":"uint32"},{"name":"blobCreatedIn","type":"uint64","internalType":"uint64"}]}],"anonymous":false},{"type":"event","name":"ForcedInclusionStored","inputs":[{"name":"forcedInclusion","type":"tuple","indexed":false,"internalType":"struct IForcedInclusionStore.ForcedInclusion","components":[{"name":"blobHash","type":"bytes32","internalType":"bytes32"},{"name":"feeInGwei","type":"uint64","internalType":"uint64"},{"name":"createdAtBatchId","type":"uint64","internalType":"uint64"},{"name":"blobByteOffset","type":"uint32","internalType":"uint32"},{"name":"blobByteSize","type":"uint32","internalType":"uint32"},{"name":"blobCreatedIn","type":"uint64","internalType":"uint64"}]}],"anonymous":false},{"type":"event","name":"Initialized","inputs":[{"name":"version","type":"uint8","indexed":false,"internalType":"uint8"}],"anonymous":false},{"type":"event","name":"OwnershipTransferStarted","inputs":[{"name":"previousOwner","type":"address","indexed":true,"internalType":"address"},{"name":"newOwner","type":"address","indexed":true,"internalType":"address"}],"anonymous":false},{"type":"event","name":"OwnershipTransferred","inputs":[{"name":"previousOwner","type":"address","indexed":true,"internalType":"address"},{"name":"newOwner","type":"address","indexed":true,"internalType":"address"}],"anonymous":false},{"type":"event","name":"Paused","inputs":[{"name":"account","type":"address","indexed":false,"internalType":"address"}],"anonymous":false},{"type":"event","name":"Unpaused","inputs":[{"name":"account","type":"address","indexed":false,"internalType":"address"}],"anonymous":false},{"type":"event","name":"Upgraded","inputs":[{"name":"implementation","type":"address","indexed":true,"internalType":"address"}],"anonymous":false},{"type":"error","name":"ACCESS_DENIED","inputs":[]},{"type":"error","name":"BlobNotFound","inputs":[]},{"type":"error","name":"ETH_TRANSFER_FAILED","inputs":[]},{"type":"error","name":"FUNC_NOT_IMPLEMENTED","inputs":[]},{"type":"error","name":"INVALID_PAUSE_STATUS","inputs":[]},{"type":"error","name":"IncorrectFee","inputs":[]},{"type":"error","name":"InvalidIndex","inputs":[]},{"type":"error","name":"InvalidParams","inputs":[]},{"type":"error","name":"MultipleCallsInOneTx","inputs":[]},{"type":"error","name":"NoForcedInclusionFound","inputs":[]},{"type":"error","name":"REENTRANT_CALL","inputs":[]},{"type":"error","name":"ZERO_ADDRESS","inputs":[]},{"type":"error","name":"ZERO_VALUE","inputs":[]}],"bytecode":{"object":"0x61014060405230608052348015610014575f5ffd5b50604051612065380380612065833981016040819052610033916101e3565b61003b61010c565b8360ff16805f0361005f5760405163ec73295960e01b815260040160405180910390fd5b836001600160401b0316805f036100895760405163ec73295960e01b815260040160405180910390fd5b836001600160a01b0381166100b15760405163538ba4f960e01b815260040160405180910390fd5b836001600160a01b0381166100d95760405163538ba4f960e01b815260040160405180910390fd5b50505060ff90941660c0526001600160401b0390921660e0526001600160a01b0390811661010052166101205250610249565b5f54610100900460ff16156101775760405162461bcd60e51b815260206004820152602760248201527f496e697469616c697a61626c653a20636f6e747261637420697320696e697469604482015266616c697a696e6760c81b606482015260840160405180910390fd5b5f5460ff908116146101c6575f805460ff191660ff9081179091556040519081527f7f26b83ff96e1f2b6a682f133852f6798a09c465da95921460cefb38474024989060200160405180910390a15b565b80516001600160a01b03811681146101de575f5ffd5b919050565b5f5f5f5f608085870312156101f6575f5ffd5b845160ff81168114610206575f5ffd5b60208601519094506001600160401b0381168114610222575f5ffd5b9250610230604086016101c8565b915061023e606086016101c8565b905092959194509250565b60805160a05160c05160e0516101005161012051611d9d6102c85f395f818161034e015261083401525f81816105e6015261125801525f818161045f0152610dd001525f81816105a101526107b501525f6101c101525f8181610a6a01528181610aaa01528181610bb501528181610bf50152610c6c0152611d9d5ff3fe6080604052600436106101af575f3560e01c8063715018a6116100e7578063b2a39d4311610087578063e30c397811610062578063e30c397814610554578063f2fde38b14610571578063f765b4c314610590578063fb0e722b146105d5575f5ffd5b8063b2a39d431461044e578063d3f1696d14610481578063ddf0b009146104a7575f5ffd5b80638abf6077116100c25780638abf6077146103df5780638da5cb5b146103f35780638f7dcfa314610410578063a7c6b8571461042f575f5ffd5b8063715018a6146103a357806379ba5097146103b75780638456cb59146103cb575f5ffd5b80633659cfe61161015257806352d1902d1161012d57806352d1902d1461032957806359df11181461033d5780635c975abb14610370578063642c34fa14610390575f5ffd5b80633659cfe6146102e35780633f4ba83a146103025780634f1ef28614610316575f5ffd5b806319ab453c1161018d57806319ab453c146102605780631c07fbfe1461028157806323524905146102a35780633075db56146102cf575f5ffd5b806304f3bcec146101b357806313d8c840146101fe57806316db89521461023c575b5f5ffd5b3480156101be575f5ffd5b507f00000000000000000000000000000000000000000000000000000000000000005b6040516001600160a01b0390911681526020015b60405180910390f35b348015610209575f5ffd5b5060fc5461022490600160401b90046001600160401b031681565b6040516001600160401b0390911681526020016101f5565b348015610247575f5ffd5b50610250610608565b60405190151581526020016101f5565b34801561026b575f5ffd5b5061027f61027a3660046118b9565b61063b565b005b34801561028c575f5ffd5b5061029561074d565b6040519081526020016101f5565b3480156102ae575f5ffd5b506102c26102bd3660046118b9565b610801565b6040516101f591906118d2565b3480156102da575f5ffd5b50610250610a48565b3480156102ee575f5ffd5b5061027f6102fd3660046118b9565b610a60565b34801561030d575f5ffd5b5061027f610b27565b61027f6103243660046119a8565b610bab565b348015610334575f5ffd5b50610295610c60565b348015610348575f5ffd5b506101e17f000000000000000000000000000000000000000000000000000000000000000081565b34801561037b575f5ffd5b5061025060c954610100900460ff1660021490565b61027f61039e366004611a5e565b610d11565b3480156103ae575f5ffd5b5061027f610fc9565b3480156103c2575f5ffd5b5061027f610fda565b3480156103d6575f5ffd5b5061027f611051565b3480156103ea575f5ffd5b506101e16110d0565b3480156103fe575f5ffd5b506033546001600160a01b03166101e1565b34801561041b575f5ffd5b5060fc54610224906001600160401b031681565b34801561043a575f5ffd5b506102c2610449366004611aa5565b6110de565b348015610459575f5ffd5b506102247f000000000000000000000000000000000000000000000000000000000000000081565b34801561048c575f5ffd5b5060fc5461022490600160801b90046001600160401b031681565b3480156104b2575f5ffd5b506105126104c1366004611aa5565b60fb6020525f9081526040902080546001909101546001600160401b0380821691600160401b810482169163ffffffff600160801b8304811692600160a01b810490911691600160c01b9091041686565b604080519687526001600160401b0395861660208801529385169386019390935263ffffffff91821660608601521660808401521660a082015260c0016101f5565b34801561055f575f5ffd5b506065546001600160a01b03166101e1565b34801561057c575f5ffd5b5061027f61058b3660046118b9565b6111e4565b34801561059b575f5ffd5b506105c37f000000000000000000000000000000000000000000000000000000000000000081565b60405160ff90911681526020016101f5565b3480156105e0575f5ffd5b506101e17f000000000000000000000000000000000000000000000000000000000000000081565b5f5f61061261074d565b90505f198114158015610635575080610629611255565b6001600160401b031610155b91505090565b5f54610100900460ff161580801561065957505f54600160ff909116105b806106725750303b15801561067257505f5460ff166001145b6106da5760405162461bcd60e51b815260206004820152602e60248201527f496e697469616c697a61626c653a20636f6e747261637420697320616c72656160448201526d191e481a5b9a5d1a585b1a5e995960921b60648201526084015b60405180910390fd5b5f805460ff1916600117905580156106fb575f805461ff0019166101001790555b610704826112dc565b8015610749575f805461ff0019169055604051600181527f7f26b83ff96e1f2b6a682f133852f6798a09c465da95921460cefb38474024989060200160405180910390a15b5050565b60fc545f906001600160401b03600160401b8204811691160361077057505f1990565b60fc546001600160401b039081165f90815260fb6020526040812060018101549092600160401b9091041690036107a9575f1991505090565b600181015460fc5460ff7f000000000000000000000000000000000000000000000000000000000000000016916107fa91600160801b90046001600160401b0390811691600160401b90041661133a565b0191505090565b6040805160c0810182525f80825260208201819052918101829052606081018290526080810182905260a08101919091527f0000000000000000000000000000000000000000000000000000000000000000336001600160a01b0382161461087c576040516395383ea160e01b815260040160405180910390fd5b600261088a60c95460ff1690565b60ff16036108ab5760405163dfc60d8560e01b815260040160405180910390fd5b60c9805460ff1916600217905560fc546001600160401b039081165f90815260fb6020526040812060018101549092600160401b90910416900361090257604051630aaa898f60e01b815260040160405180910390fd5b6040805160c0810182528254815260018301546001600160401b038082166020840152600160401b820481169383019390935263ffffffff600160801b820481166060840152600160a01b8204166080830152600160c01b900490911660a0820152925061096e611255565b60fc80546001600160401b03928316600160801b02808416848316176001818101861667ffffffffffffffff1990931677ffffffffffffffff0000000000000000ffffffffffffffff1990941693909317919091179092555f91825260fb602090815260408320838155909101919091558401516109fd916001600160a01b03871691633b9aca000216611351565b7ff809dd2f6c75fbd4675267b566cae3fc3091966f0efbfca97341e5c7eb9a4fe483604051610a2c91906118d2565b60405180910390a15060c9805460ff1916600117905550919050565b5f6002610a5760c95460ff1690565b60ff1614905090565b6001600160a01b037f0000000000000000000000000000000000000000000000000000000000000000163003610aa85760405162461bcd60e51b81526004016106d190611abc565b7f00000000000000000000000000000000000000000000000000000000000000006001600160a01b0316610ada61135c565b6001600160a01b031614610b005760405162461bcd60e51b81526004016106d190611b08565b610b0981611377565b604080515f80825260208201909252610b249183919061137f565b50565b610b3b60c954610100900460ff1660021490565b610b585760405163bae6e2a960e01b815260040160405180910390fd5b610b6c60c9805461ff001916610100179055565b6040513381527f5db9ee0a495bf2e6ff9c91a7834c1ba4fdd244a5e8aa4e537bd38aeae4b073aa9060200160405180910390a1610ba9335f6114ee565b565b6001600160a01b037f0000000000000000000000000000000000000000000000000000000000000000163003610bf35760405162461bcd60e51b81526004016106d190611abc565b7f00000000000000000000000000000000000000000000000000000000000000006001600160a01b0316610c2561135c565b6001600160a01b031614610c4b5760405162461bcd60e51b81526004016106d190611b08565b610c5482611377565b6107498282600161137f565b5f306001600160a01b037f00000000000000000000000000000000000000000000000000000000000000001614610cff5760405162461bcd60e51b815260206004820152603860248201527f555550535570677261646561626c653a206d757374206e6f742062652063616c60448201527f6c6564207468726f7567682064656c656761746563616c6c000000000000000060648201526084016106d1565b505f516020611d215f395f51905f5290565b7f5a1e3a5f720a5155ea49503410bd539c2a6a2a71c3684875803b191fd01b81005c8015610d52576040516337018db160e21b815260040160405180910390fd5b60017f5a1e3a5f720a5155ea49503410bd539c2a6a2a71c3684875803b191fd01b81005d610d8a60c954610100900460ff1660021490565b15610da85760405163bae6e2a960e01b815260040160405180910390fd5b60ff84164980610dcb57604051637bb2fa2f60e11b815260040160405180910390fd5b610df97f0000000000000000000000000000000000000000000000000000000000000000633b9aca00611b68565b6001600160401b03163414610e215760405163cd3cb2bb60e01b815260040160405180910390fd5b5f6040518060c00160405280838152602001633b9aca0034610e439190611b91565b6001600160401b03168152602001610e59611255565b6001600160401b031681526020018663ffffffff1681526020018563ffffffff168152602001436001600160401b031681525090508060fb5f60fc600881819054906101000a90046001600160401b031680929190610eb790611bb0565b82546101009290920a6001600160401b03818102199093169183160217909155908116825260208083019390935260409182015f2084518155928401516001939093018054858401516060870151608088015160a0909801519685166fffffffffffffffffffffffffffffffff1990931692909217600160401b918516919091021767ffffffffffffffff60801b1916600160801b63ffffffff9283160263ffffffff60a01b191617600160a01b9190961602949094176001600160c01b0316600160c01b939091169290920291909117909155517fae657aef29b5c692a97f741e24336b517560eaafaaf57dfafc0a24781b631ff190610fb99083906118d2565b60405180910390a1505050505050565b610fd16114f2565b610ba95f61154c565b60655433906001600160a01b031681146110485760405162461bcd60e51b815260206004820152602960248201527f4f776e61626c6532537465703a2063616c6c6572206973206e6f7420746865206044820152683732bb9037bbb732b960b91b60648201526084016106d1565b610b248161154c565b61106560c954610100900460ff1660021490565b156110835760405163bae6e2a960e01b815260040160405180910390fd5b60c9805461ff0019166102001790556040513381527f62e78cea01bee320cd4e420270b5ea74000d11b0c9f74754ebdbfc544b05a2589060200160405180910390a1610ba93360016114ee565b5f6110d961135c565b905090565b6040805160c0810182525f80825260208201819052918101829052606081018290526080810182905260a081019190915260fc546001600160401b031682101561113b576040516363df817160e01b815260040160405180910390fd5b60fc54600160401b90046001600160401b0316821061116d576040516363df817160e01b815260040160405180910390fd5b505f90815260fb6020908152604091829020825160c081018452815481526001909101546001600160401b0380821693830193909352600160401b810483169382019390935263ffffffff600160801b840481166060830152600160a01b8404166080820152600160c01b9092041660a082015290565b6111ec6114f2565b606580546001600160a01b0383166001600160a01b0319909116811790915561121d6033546001600160a01b031690565b6001600160a01b03167f38d16b8cac22d99fc7c124b9cd0de2d3fa1faef420bfe791d8c362d765e2270060405160405180910390a350565b5f7f00000000000000000000000000000000000000000000000000000000000000006001600160a01b03166369a858d76040518163ffffffff1660e01b815260040160a060405180830381865afa1580156112b2573d5f5f3e3d5ffd5b505050506040513d601f19601f820116820180604052508101906112d69190611bf0565b51919050565b5f54610100900460ff166113025760405162461bcd60e51b81526004016106d190611c73565b61130a611565565b6113286001600160a01b03821615611322578161154c565b3361154c565b5060c9805461ff001916610100179055565b5f818311611348578161134a565b825b9392505050565b61074982825a61158b565b5f516020611d215f395f51905f52546001600160a01b031690565b610b246114f2565b7f4910fdfa16fed3260ed0e7147f7cc6da11a60208b5b9406d12a635614ffd91435460ff16156113b7576113b2836115ce565b505050565b826001600160a01b03166352d1902d6040518163ffffffff1660e01b8152600401602060405180830381865afa925050508015611411575060408051601f3d908101601f1916820190925261140e91810190611cbe565b60015b6114745760405162461bcd60e51b815260206004820152602e60248201527f45524331393637557067726164653a206e657720696d706c656d656e7461746960448201526d6f6e206973206e6f74205555505360901b60648201526084016106d1565b5f516020611d215f395f51905f5281146114e25760405162461bcd60e51b815260206004820152602960248201527f45524331393637557067726164653a20756e737570706f727465642070726f786044820152681a58589b195555525160ba1b60648201526084016106d1565b506113b2838383611669565b6107495b6033546001600160a01b03163314610ba95760405162461bcd60e51b815260206004820181905260248201527f4f776e61626c653a2063616c6c6572206973206e6f7420746865206f776e657260448201526064016106d1565b606580546001600160a01b0319169055610b2481611693565b5f54610100900460ff16610ba95760405162461bcd60e51b81526004016106d190611c73565b815f0361159757505050565b6115b183838360405180602001604052805f8152506116e4565b6113b257604051634c67134d60e11b815260040160405180910390fd5b6001600160a01b0381163b61163b5760405162461bcd60e51b815260206004820152602d60248201527f455243313936373a206e657720696d706c656d656e746174696f6e206973206e60448201526c1bdd08184818dbdb9d1c9858dd609a1b60648201526084016106d1565b5f516020611d215f395f51905f5280546001600160a01b0319166001600160a01b0392909216919091179055565b61167283611721565b5f8251118061167e5750805b156113b25761168d8383611760565b50505050565b603380546001600160a01b038381166001600160a01b0319831681179093556040519116919082907f8be0079c531659141344cd1fd0a4f28419497f9722a3daafe3b4186f6b6457e0905f90a35050565b5f6001600160a01b03851661170c57604051634c67134d60e11b815260040160405180910390fd5b5f5f835160208501878988f195945050505050565b61172a816115ce565b6040516001600160a01b038216907fbc7cd75a20ee27fd9adebab32041f755214dbc6bffa90cc0225b39da2e5c2d3b905f90a250565b606061134a8383604051806060016040528060278152602001611d416027913960605f5f856001600160a01b03168560405161179c9190611cd5565b5f60405180830381855af49150503d805f81146117d4576040519150601f19603f3d011682016040523d82523d5f602084013e6117d9565b606091505b50915091506117ea868383876117f4565b9695505050505050565b606083156118625782515f0361185b576001600160a01b0385163b61185b5760405162461bcd60e51b815260206004820152601d60248201527f416464726573733a2063616c6c20746f206e6f6e2d636f6e747261637400000060448201526064016106d1565b508161186c565b61186c8383611874565b949350505050565b8151156118845781518083602001fd5b8060405162461bcd60e51b81526004016106d19190611ceb565b80356001600160a01b03811681146118b4575f5ffd5b919050565b5f602082840312156118c9575f5ffd5b61134a8261189e565b5f60c082019050825182526001600160401b0360208401511660208301526001600160401b03604084015116604083015263ffffffff606084015116606083015263ffffffff60808401511660808301526001600160401b0360a08401511660a083015292915050565b634e487b7160e01b5f52604160045260245ffd5b60405160a081016001600160401b03811182821017156119725761197261193c565b60405290565b604051601f8201601f191681016001600160401b03811182821017156119a0576119a061193c565b604052919050565b5f5f604083850312156119b9575f5ffd5b6119c28361189e565b915060208301356001600160401b038111156119dc575f5ffd5b8301601f810185136119ec575f5ffd5b80356001600160401b03811115611a0557611a0561193c565b611a18601f8201601f1916602001611978565b818152866020838501011115611a2c575f5ffd5b816020840160208301375f602083830101528093505050509250929050565b803563ffffffff811681146118b4575f5ffd5b5f5f5f60608486031215611a70575f5ffd5b833560ff81168114611a80575f5ffd5b9250611a8e60208501611a4b565b9150611a9c60408501611a4b565b90509250925092565b5f60208284031215611ab5575f5ffd5b5035919050565b6020808252602c908201527f46756e6374696f6e206d7573742062652063616c6c6564207468726f7567682060408201526b19195b1959d85d1958d85b1b60a21b606082015260800190565b6020808252602c908201527f46756e6374696f6e206d7573742062652063616c6c6564207468726f7567682060408201526b6163746976652070726f787960a01b606082015260800190565b634e487b7160e01b5f52601160045260245ffd5b6001600160401b038181168382160290811690818114611b8a57611b8a611b54565b5092915050565b5f82611bab57634e487b7160e01b5f52601260045260245ffd5b500490565b5f6001600160401b0382166001600160401b038103611bd157611bd1611b54565b60010192915050565b80516001600160401b03811681146118b4575f5ffd5b5f60a0828403128015611c01575f5ffd5b50611c0a611950565b611c1383611bda565b8152611c2160208401611bda565b602082015260408301518015158114611c38575f5ffd5b6040820152606083015166ffffffffffffff81168114611c56575f5ffd5b6060820152611c6760808401611bda565b60808201529392505050565b6020808252602b908201527f496e697469616c697a61626c653a20636f6e7472616374206973206e6f74206960408201526a6e697469616c697a696e6760a81b606082015260800190565b5f60208284031215611cce575f5ffd5b5051919050565b5f82518060208501845e5f920191825250919050565b602081525f82518060208401528060208501604085015e5f604082850101526040601f19601f8301168401019150509291505056fe360894a13ba1a3210667c828492db98dca3e2076cc3735a920a3ca505d382bbc416464726573733a206c6f772d6c6576656c2064656c65676174652063616c6c206661696c6564a264697066735822122055eadb8c6d18224848ba56df9f5b8014a94105a7e621363abadb9fc1a51f63f564736f6c634300081e0033","linkReferences":{}},"methodIdentifiers":{"acceptOwnership()":"79ba5097","consumeOldestForcedInclusion(address)":"23524905","feeInGwei()":"b2a39d43","getForcedInclusion(uint256)":"a7c6b857","getOldestForcedInclusionDeadline()":"1c07fbfe","head()":"8f7dcfa3","impl()":"8abf6077","inNonReentrant()":"3075db56","inbox()":"fb0e722b","inboxWrapper()":"59df1118","inclusionDelay()":"f765b4c3","init(address)":"19ab453c","isOldestForcedInclusionDue()":"16db8952","lastProcessedAtBatchId()":"d3f1696d","owner()":"8da5cb5b","pause()":"8456cb59","paused()":"5c975abb","pendingOwner()":"e30c3978","proxiableUUID()":"52d1902d","queue(uint256)":"ddf0b009","renounceOwnership()":"715018a6","resolver()":"04f3bcec","storeForcedInclusion(uint8,uint32,uint32)":"642c34fa","tail()":"13d8c840","transferOwnership(address)":"f2fde38b","unpause()":"3f4ba83a","upgradeTo(address)":"3659cfe6","upgradeToAndCall(address,bytes)":"4f1ef286"},"storageLayout":{"storage":[{"astId":32450,"contract":"contracts/layer1/forced-inclusion/ForcedInclusionStore.sol:ForcedInclusionStore","label":"_initialized","offset":0,"slot":"0","type":"t_uint8"},{"astId":32453,"contract":"contracts/layer1/forced-inclusion/ForcedInclusionStore.sol:ForcedInclusionStore","label":"_initializing","offset":1,"slot":"0","type":"t_bool"},{"astId":37789,"contract":"contracts/layer1/forced-inclusion/ForcedInclusionStore.sol:ForcedInclusionStore","label":"__gap","offset":0,"slot":"1","type":"t_array(t_uint256)50_storage"},{"astId":32195,"contract":"contracts/layer1/forced-inclusion/ForcedInclusionStore.sol:ForcedInclusionStore","label":"_owner","offset":0,"slot":"51","type":"t_address"},{"astId":32315,"contract":"contracts/layer1/forced-inclusion/ForcedInclusionStore.sol:ForcedInclusionStore","label":"__gap","offset":0,"slot":"52","type":"t_array(t_uint256)49_storage"},{"astId":32088,"contract":"contracts/layer1/forced-inclusion/ForcedInclusionStore.sol:ForcedInclusionStore","label":"_pendingOwner","offset":0,"slot":"101","type":"t_address"},{"astId":32182,"contract":"contracts/layer1/forced-inclusion/ForcedInclusionStore.sol:ForcedInclusionStore","label":"__gap","offset":0,"slot":"102","type":"t_array(t_uint256)49_storage"},{"astId":23345,"contract":"contracts/layer1/forced-inclusion/ForcedInclusionStore.sol:ForcedInclusionStore","label":"__gapFromOldAddressResolver","offset":0,"slot":"151","type":"t_array(t_uint256)50_storage"},{"astId":23348,"contract":"contracts/layer1/forced-inclusion/ForcedInclusionStore.sol:ForcedInclusionStore","label":"__reentry","offset":0,"slot":"201","type":"t_uint8"},{"astId":23350,"contract":"contracts/layer1/forced-inclusion/ForcedInclusionStore.sol:ForcedInclusionStore","label":"__paused","offset":1,"slot":"201","type":"t_uint8"},{"astId":23354,"contract":"contracts/layer1/forced-inclusion/ForcedInclusionStore.sol:ForcedInclusionStore","label":"__gap","offset":0,"slot":"202","type":"t_array(t_uint256)49_storage"},{"astId":9543,"contract":"contracts/layer1/forced-inclusion/ForcedInclusionStore.sol:ForcedInclusionStore","label":"queue","offset":0,"slot":"251","type":"t_mapping(t_uint256,t_struct(ForcedInclusion)9905_storage)"},{"astId":9545,"contract":"contracts/layer1/forced-inclusion/ForcedInclusionStore.sol:ForcedInclusionStore","label":"head","offset":0,"slot":"252","type":"t_uint64"},{"astId":9547,"contract":"contracts/layer1/forced-inclusion/ForcedInclusionStore.sol:ForcedInclusionStore","label":"tail","offset":8,"slot":"252","type":"t_uint64"},{"astId":9549,"contract":"contracts/layer1/forced-inclusion/ForcedInclusionStore.sol:ForcedInclusionStore","label":"lastProcessedAtBatchId","offset":16,"slot":"252","type":"t_uint64"},{"astId":9551,"contract":"contracts/layer1/forced-inclusion/ForcedInclusionStore.sol:ForcedInclusionStore","label":"__reserved1","offset":24,"slot":"252","type":"t_uint64"},{"astId":9555,"contract":"contracts/layer1/forced-inclusion/ForcedInclusionStore.sol:ForcedInclusionStore","label":"__gap","offset":0,"slot":"253","type":"t_array(t_uint256)48_storage"}],"types":{"t_address":{"encoding":"inplace","label":"address","numberOfBytes":"20"},"t_array(t_uint256)48_storage":{"encoding":"inplace","label":"uint256[48]","numberOfBytes":"1536","base":"t_uint256"},"t_array(t_uint256)49_storage":{"encoding":"inplace","label":"uint256[49]","numberOfBytes":"1568","base":"t_uint256"},"t_array(t_uint256)50_storage":{"encoding":"inplace","label":"uint256[50]","numberOfBytes":"1600","base":"t_uint256"},"t_bool":{"encoding":"inplace","label":"bool","numberOfBytes":"1"},"t_bytes32":{"encoding":"inplace","label":"bytes32","numberOfBytes":"32"},"t_mapping(t_uint256,t_struct(ForcedInclusion)9905_storage)":{"encoding":"mapping","key":"t_uint256","label":"mapping(uint256 => struct IForcedInclusionStore.ForcedInclusion)","numberOfBytes":"32","value":"t_struct(ForcedInclusion)9905_storage"},"t_struct(ForcedInclusion)9905_storage":{"encoding":"inplace","label":"struct IForcedInclusionStore.ForcedInclusion","numberOfBytes":"64","members":[{"astId":9894,"contract":"contracts/layer1/forced-inclusion/ForcedInclusionStore.sol:ForcedInclusionStore","label":"blobHash","offset":0,"slot":"0","type":"t_bytes32"},{"astId":9896,"contract":"contracts/layer1/forced-inclusion/ForcedInclusionStore.sol:ForcedInclusionStore","label":"feeInGwei","offset":0,"slot":"1","type":"t_uint64"},{"astId":9898,"contract":"contracts/layer1/forced-inclusion/ForcedInclusionStore.sol:ForcedInclusionStore","label":"createdAtBatchId","offset":8,"slot":"1","type":"t_uint64"},{"astId":9900,"contract":"contracts/layer1/forced-inclusion/ForcedInclusionStore.sol:ForcedInclusionStore","label":"blobByteOffset","offset":16,"slot":"1","type":"t_uint32"},{"astId":9902,"contract":"contracts/layer1/forced-inclusion/ForcedInclusionStore.sol:ForcedInclusionStore","label":"blobByteSize","offset":20,"slot":"1","type":"t_uint32"},{"astId":9904,"contract":"contracts/layer1/forced-inclusion/ForcedInclusionStore.sol:ForcedInclusionStore","label":"blobCreatedIn","offset":24,"slot":"1","type":"t_uint64"}]},"t_uint256":{"encoding":"inplace","label":"uint256","numberOfBytes":"32"},"t_uint32":{"encoding":"inplace","label":"uint32","numberOfBytes":"4"},"t_uint64":{"encoding":"inplace","label":"uint64","numberOfBytes":"8"},"t_uint8":{"encoding":"inplace","label":"uint8","numberOfBytes":"1"}}},"id":25}