{"abi":[{"type":"constructor","inputs":[{"name":"_inbox","type":"address","internalType":"address"},{"name":"_forcedInclusionStore","type":"address","internalType":"address"},{"name":"_preconfRouter","type":"address","internalType":"address"}],"stateMutability":"nonpayable"},{"type":"function","name":"MIN_TXS_PER_FORCED_INCLUSION","inputs":[],"outputs":[{"name":"","type":"uint16","internalType":"uint16"}],"stateMutability":"view"},{"type":"function","name":"acceptOwnership","inputs":[],"outputs":[],"stateMutability":"nonpayable"},{"type":"function","name":"forcedInclusionStore","inputs":[],"outputs":[{"name":"","type":"address","internalType":"contract IForcedInclusionStore"}],"stateMutability":"view"},{"type":"function","name":"impl","inputs":[],"outputs":[{"name":"","type":"address","internalType":"address"}],"stateMutability":"view"},{"type":"function","name":"inNonReentrant","inputs":[],"outputs":[{"name":"","type":"bool","internalType":"bool"}],"stateMutability":"view"},{"type":"function","name":"inbox","inputs":[],"outputs":[{"name":"","type":"address","internalType":"contract IProposeBatch"}],"stateMutability":"view"},{"type":"function","name":"init","inputs":[{"name":"_owner","type":"address","internalType":"address"}],"outputs":[],"stateMutability":"nonpayable"},{"type":"function","name":"owner","inputs":[],"outputs":[{"name":"","type":"address","internalType":"address"}],"stateMutability":"view"},{"type":"function","name":"pause","inputs":[],"outputs":[],"stateMutability":"nonpayable"},{"type":"function","name":"paused","inputs":[],"outputs":[{"name":"","type":"bool","internalType":"bool"}],"stateMutability":"view"},{"type":"function","name":"pendingOwner","inputs":[],"outputs":[{"name":"","type":"address","internalType":"address"}],"stateMutability":"view"},{"type":"function","name":"preconfRouter","inputs":[],"outputs":[{"name":"","type":"address","internalType":"address"}],"stateMutability":"view"},{"type":"function","name":"proxiableUUID","inputs":[],"outputs":[{"name":"","type":"bytes32","internalType":"bytes32"}],"stateMutability":"view"},{"type":"function","name":"renounceOwnership","inputs":[],"outputs":[],"stateMutability":"nonpayable"},{"type":"function","name":"resolver","inputs":[],"outputs":[{"name":"","type":"address","internalType":"address"}],"stateMutability":"view"},{"type":"function","name":"transferOwnership","inputs":[{"name":"newOwner","type":"address","internalType":"address"}],"outputs":[],"stateMutability":"nonpayable"},{"type":"function","name":"unpause","inputs":[],"outputs":[],"stateMutability":"nonpayable"},{"type":"function","name":"upgradeTo","inputs":[{"name":"newImplementation","type":"address","internalType":"address"}],"outputs":[],"stateMutability":"nonpayable"},{"type":"function","name":"upgradeToAndCall","inputs":[{"name":"newImplementation","type":"address","internalType":"address"},{"name":"data","type":"bytes","internalType":"bytes"}],"outputs":[],"stateMutability":"payable"},{"type":"function","name":"v4ProposeBatch","inputs":[{"name":"_params","type":"bytes","internalType":"bytes"},{"name":"_txList","type":"bytes","internalType":"bytes"},{"name":"","type":"bytes","internalType":"bytes"}],"outputs":[{"name":"","type":"tuple","internalType":"struct ITaikoInbox.BatchInfo","components":[{"name":"txsHash","type":"bytes32","internalType":"bytes32"},{"name":"blocks","type":"tuple[]","internalType":"struct ITaikoInbox.BlockParams[]","components":[{"name":"numTransactions","type":"uint16","internalType":"uint16"},{"name":"timeShift","type":"uint8","internalType":"uint8"},{"name":"signalSlots","type":"bytes32[]","internalType":"bytes32[]"}]},{"name":"blobHashes","type":"bytes32[]","internalType":"bytes32[]"},{"name":"extraData","type":"bytes32","internalType":"bytes32"},{"name":"coinbase","type":"address","internalType":"address"},{"name":"proposer","type":"address","internalType":"address"},{"name":"proposedIn","type":"uint64","internalType":"uint64"},{"name":"blobCreatedIn","type":"uint64","internalType":"uint64"},{"name":"blobByteOffset","type":"uint32","internalType":"uint32"},{"name":"blobByteSize","type":"uint32","internalType":"uint32"},{"name":"gasLimit","type":"uint32","internalType":"uint32"},{"name":"lastBlockId","type":"uint64","internalType":"uint64"},{"name":"lastBlockTimestamp","type":"uint64","internalType":"uint64"},{"name":"anchorBlockId","type":"uint64","internalType":"uint64"},{"name":"anchorBlockHash","type":"bytes32","internalType":"bytes32"},{"name":"baseFeeConfig","type":"tuple","internalType":"struct LibSharedData.BaseFeeConfig","components":[{"name":"adjustmentQuotient","type":"uint8","internalType":"uint8"},{"name":"gasIssuancePerSecond","type":"uint32","internalType":"uint32"},{"name":"minGasExcess","type":"uint64","internalType":"uint64"},{"name":"maxGasIssuancePerBlock","type":"uint32","internalType":"uint32"}]}]},{"name":"","type":"tuple","internalType":"struct ITaikoInbox.BatchMetadata","components":[{"name":"infoHash","type":"bytes32","internalType":"bytes32"},{"name":"prover","type":"address","internalType":"address"},{"name":"batchId","type":"uint64","internalType":"uint64"},{"name":"proposedAt","type":"uint64","internalType":"uint64"}]}],"stateMutability":"nonpayable"},{"type":"event","name":"AdminChanged","inputs":[{"name":"previousAdmin","type":"address","indexed":false,"internalType":"address"},{"name":"newAdmin","type":"address","indexed":false,"internalType":"address"}],"anonymous":false},{"type":"event","name":"BeaconUpgraded","inputs":[{"name":"beacon","type":"address","indexed":true,"internalType":"address"}],"anonymous":false},{"type":"event","name":"ForcedInclusionProcessed","inputs":[{"name":"","type":"tuple","indexed":false,"internalType":"struct IForcedInclusionStore.ForcedInclusion","components":[{"name":"blobHash","type":"bytes32","internalType":"bytes32"},{"name":"feeInGwei","type":"uint64","internalType":"uint64"},{"name":"createdAtBatchId","type":"uint64","internalType":"uint64"},{"name":"blobByteOffset","type":"uint32","internalType":"uint32"},{"name":"blobByteSize","type":"uint32","internalType":"uint32"},{"name":"blobCreatedIn","type":"uint64","internalType":"uint64"}]}],"anonymous":false},{"type":"event","name":"Initialized","inputs":[{"name":"version","type":"uint8","indexed":false,"internalType":"uint8"}],"anonymous":false},{"type":"event","name":"OwnershipTransferStarted","inputs":[{"name":"previousOwner","type":"address","indexed":true,"internalType":"address"},{"name":"newOwner","type":"address","indexed":true,"internalType":"address"}],"anonymous":false},{"type":"event","name":"OwnershipTransferred","inputs":[{"name":"previousOwner","type":"address","indexed":true,"internalType":"address"},{"name":"newOwner","type":"address","indexed":true,"internalType":"address"}],"anonymous":false},{"type":"event","name":"Paused","inputs":[{"name":"account","type":"address","indexed":false,"internalType":"address"}],"anonymous":false},{"type":"event","name":"Unpaused","inputs":[{"name":"account","type":"address","indexed":false,"internalType":"address"}],"anonymous":false},{"type":"event","name":"Upgraded","inputs":[{"name":"implementation","type":"address","indexed":true,"internalType":"address"}],"anonymous":false},{"type":"error","name":"ACCESS_DENIED","inputs":[]},{"type":"error","name":"FUNC_NOT_IMPLEMENTED","inputs":[]},{"type":"error","name":"INVALID_PAUSE_STATUS","inputs":[]},{"type":"error","name":"InvalidBlobByteOffset","inputs":[]},{"type":"error","name":"InvalidBlobByteSize","inputs":[]},{"type":"error","name":"InvalidBlobCreatedIn","inputs":[]},{"type":"error","name":"InvalidBlobCreatedIn","inputs":[]},{"type":"error","name":"InvalidBlobHash","inputs":[]},{"type":"error","name":"InvalidBlobHashesSize","inputs":[]},{"type":"error","name":"InvalidBlobParams","inputs":[]},{"type":"error","name":"InvalidBlockSize","inputs":[]},{"type":"error","name":"InvalidBlockTxs","inputs":[]},{"type":"error","name":"InvalidSignalSlots","inputs":[]},{"type":"error","name":"InvalidTimeShift","inputs":[]},{"type":"error","name":"OldestForcedInclusionDue","inputs":[]},{"type":"error","name":"REENTRANT_CALL","inputs":[]},{"type":"error","name":"ZERO_ADDRESS","inputs":[]},{"type":"error","name":"ZERO_VALUE","inputs":[]}],"bytecode":{"object":"0x61012060405230608052348015610014575f5ffd5b5060405161266438038061266483398101604081905261003391610182565b61003b6100ab565b826001600160a01b0381166100635760405163538ba4f960e01b815260040160405180910390fd5b826001600160a01b03811661008b5760405163538ba4f960e01b815260040160405180910390fd5b50506001600160a01b0392831660c05290821660e05216610100526101c2565b5f54610100900460ff16156101165760405162461bcd60e51b815260206004820152602760248201527f496e697469616c697a61626c653a20636f6e747261637420697320696e697469604482015266616c697a696e6760c81b606482015260840160405180910390fd5b5f5460ff90811614610165575f805460ff191660ff9081179091556040519081527f7f26b83ff96e1f2b6a682f133852f6798a09c465da95921460cefb38474024989060200160405180910390a15b565b80516001600160a01b038116811461017d575f5ffd5b919050565b5f5f5f60608486031215610194575f5ffd5b61019d84610167565b92506101ab60208501610167565b91506101b960408501610167565b90509250925092565b60805160a05160c05160e0516101005161242661023e5f395f8181610346015261098301525f818161037901528181610a350152610adb01525f81816103ac01528181610b170152610c1501525f61012d01525f8181610502015281816105420152818161064d0152818161068d015261070401526124265ff3fe60806040526004361061011b575f3560e01c80638456cb591161009d578063e30c397811610062578063e30c3978146102f9578063f2fde38b14610316578063f4bb907714610335578063f749e9d414610368578063fb0e722b1461039b575f5ffd5b80638456cb591461025f5780638abf6077146102735780638da5cb5b14610287578063936ee868146102a4578063e2d54d39146102cc575f5ffd5b80634f1ef286116100e35780634f1ef286146101e257806352d1902d146101f55780635c975abb14610217578063715018a61461023757806379ba50971461024b575f5ffd5b806304f3bcec1461011f57806319ab453c1461016a5780633075db561461018b5780633659cfe6146101af5780633f4ba83a146101ce575b5f5ffd5b34801561012a575f5ffd5b507f00000000000000000000000000000000000000000000000000000000000000005b6040516001600160a01b0390911681526020015b60405180910390f35b348015610175575f5ffd5b5061018961018436600461159b565b6103ce565b005b348015610196575f5ffd5b5061019f6104e0565b6040519015158152602001610161565b3480156101ba575f5ffd5b506101896101c936600461159b565b6104f8565b3480156101d9575f5ffd5b506101896105bf565b6101896101f0366004611724565b610643565b348015610200575f5ffd5b506102096106f8565b604051908152602001610161565b348015610222575f5ffd5b5061019f60c954610100900460ff1660021490565b348015610242575f5ffd5b506101896107a9565b348015610256575f5ffd5b506101896107ba565b34801561026a575f5ffd5b50610189610831565b34801561027e575f5ffd5b5061014d6108b0565b348015610292575f5ffd5b506033546001600160a01b031661014d565b3480156102af575f5ffd5b506102b961020081565b60405161ffff9091168152602001610161565b3480156102d7575f5ffd5b506102eb6102e63660046117b4565b6108be565b60405161016192919061190c565b348015610304575f5ffd5b506065546001600160a01b031661014d565b348015610321575f5ffd5b5061018961033036600461159b565b610cb7565b348015610340575f5ffd5b5061014d7f000000000000000000000000000000000000000000000000000000000000000081565b348015610373575f5ffd5b5061014d7f000000000000000000000000000000000000000000000000000000000000000081565b3480156103a6575f5ffd5b5061014d7f000000000000000000000000000000000000000000000000000000000000000081565b5f54610100900460ff16158080156103ec57505f54600160ff909116105b806104055750303b15801561040557505f5460ff166001145b61046d5760405162461bcd60e51b815260206004820152602e60248201527f496e697469616c697a61626c653a20636f6e747261637420697320616c72656160448201526d191e481a5b9a5d1a585b1a5e995960921b60648201526084015b60405180910390fd5b5f805460ff19166001179055801561048e575f805461ff0019166101001790555b61049782610d28565b80156104dc575f805461ff0019169055604051600181527f7f26b83ff96e1f2b6a682f133852f6798a09c465da95921460cefb38474024989060200160405180910390a15b5050565b5f60026104ef60c95460ff1690565b60ff1614905090565b6001600160a01b037f00000000000000000000000000000000000000000000000000000000000000001630036105405760405162461bcd60e51b815260040161046490611ad8565b7f00000000000000000000000000000000000000000000000000000000000000006001600160a01b0316610572610d86565b6001600160a01b0316146105985760405162461bcd60e51b815260040161046490611b24565b6105a181610da1565b604080515f808252602082019092526105bc91839190610da9565b50565b6105d360c954610100900460ff1660021490565b6105f05760405163bae6e2a960e01b815260040160405180910390fd5b61060460c9805461ff001916610100179055565b6040513381527f5db9ee0a495bf2e6ff9c91a7834c1ba4fdd244a5e8aa4e537bd38aeae4b073aa9060200160405180910390a1610641335f610f18565b565b6001600160a01b037f000000000000000000000000000000000000000000000000000000000000000016300361068b5760405162461bcd60e51b815260040161046490611ad8565b7f00000000000000000000000000000000000000000000000000000000000000006001600160a01b03166106bd610d86565b6001600160a01b0316146106e35760405162461bcd60e51b815260040161046490611b24565b6106ec82610da1565b6104dc82826001610da9565b5f306001600160a01b037f000000000000000000000000000000000000000000000000000000000000000016146107975760405162461bcd60e51b815260206004820152603860248201527f555550535570677261646561626c653a206d757374206e6f742062652063616c60448201527f6c6564207468726f7567682064656c656761746563616c6c00000000000000006064820152608401610464565b505f5160206123aa5f395f51905f5290565b6107b1610f1c565b6106415f610f76565b60655433906001600160a01b031681146108285760405162461bcd60e51b815260206004820152602960248201527f4f776e61626c6532537465703a2063616c6c6572206973206e6f7420746865206044820152683732bb9037bbb732b960b91b6064820152608401610464565b6105bc81610f76565b61084560c954610100900460ff1660021490565b156108635760405163bae6e2a960e01b815260040160405180910390fd5b60c9805461ff0019166102001790556040513381527f62e78cea01bee320cd4e420270b5ea74000d11b0c9f74754ebdbfc544b05a2589060200160405180910390a1610641336001610f18565b5f6108b9610d86565b905090565b61095e60408051610200810182525f80825260606020808401829052838501829052818401839052608080850184905260a0850184905260c0850184905260e08501849052610100850184905261012085018490526101408501849052610160850184905261018085018490526101a085018490526101c0850184905285519081018652838152908101839052938401829052830152906101e082015290565b604080516080810182525f8082526020820181905291810182905260608101919091527f00000000000000000000000000000000000000000000000000000000000000006001600160a01b03811615806109c05750336001600160a01b038216145b6109dd576040516395383ea160e01b815260040160405180910390fd5b60026109eb60c95460ff1690565b60ff1603610a0c5760405163dfc60d8560e01b815260040160405180910390fd5b60c9805460ff191660021790555f80610a278a8c018c611b70565b9150915081515f03610ad6577f00000000000000000000000000000000000000000000000000000000000000006001600160a01b03166316db89526040518163ffffffff1660e01b8152600401602060405180830381865afa158015610a8f573d5f5f3e3d5ffd5b505050506040513d601f19601f82011682018060405250810190610ab39190611bd1565b15610ad1576040516301e66a7760e41b815260040160405180910390fd5b610b91565b610b007f000000000000000000000000000000000000000000000000000000000000000083610f8f565b60405163e2d54d3960e01b81526001600160a01b037f0000000000000000000000000000000000000000000000000000000000000000169063e2d54d3990610b4c908590600401611c18565b5f604051808303815f875af1158015610b67573d5f5f3e3d5ffd5b505050506040513d5f823e601f3d908101601f19168201604052610b8e9190810190611ea7565b50505b5f81806020019051810190610ba6919061211e565b60c0810151515190915015610bce57604051632677ebff60e01b815260040160405180910390fd5b60c081015160a001516001600160401b031615610bfe576040516307a4f83360e11b815260040160405180910390fd5b60405163e2d54d3960e01b81526001600160a01b037f0000000000000000000000000000000000000000000000000000000000000000169063e2d54d3990610c4e9085908e908e9060040161223e565b5f604051808303815f875af1158015610c69573d5f5f3e3d5ffd5b505050506040513d5f823e601f3d908101601f19168201604052610c909190810190611ea7565b60c9805460ff191660011790559096509450610cab92505050565b50965096945050505050565b610cbf610f1c565b606580546001600160a01b0383166001600160a01b03199091168117909155610cf06033546001600160a01b031690565b6001600160a01b03167f38d16b8cac22d99fc7c124b9cd0de2d3fa1faef420bfe791d8c362d765e2270060405160405180910390a350565b5f54610100900460ff16610d4e5760405162461bcd60e51b815260040161046490612291565b610d566112c2565b610d746001600160a01b03821615610d6e5781610f76565b33610f76565b5060c9805461ff001916610100179055565b5f5160206123aa5f395f51905f52546001600160a01b031690565b6105bc610f1c565b7f4910fdfa16fed3260ed0e7147f7cc6da11a60208b5b9406d12a635614ffd91435460ff1615610de157610ddc836112e8565b505050565b826001600160a01b03166352d1902d6040518163ffffffff1660e01b8152600401602060405180830381865afa925050508015610e3b575060408051601f3d908101601f19168201909252610e38918101906122dc565b60015b610e9e5760405162461bcd60e51b815260206004820152602e60248201527f45524331393637557067726164653a206e657720696d706c656d656e7461746960448201526d6f6e206973206e6f74205555505360901b6064820152608401610464565b5f5160206123aa5f395f51905f528114610f0c5760405162461bcd60e51b815260206004820152602960248201527f45524331393637557067726164653a20756e737570706f727465642070726f786044820152681a58589b195555525160ba1b6064820152608401610464565b50610ddc838383611383565b6104dc5b6033546001600160a01b031633146106415760405162461bcd60e51b815260206004820181905260248201527f4f776e61626c653a2063616c6c6572206973206e6f7420746865206f776e65726044820152606401610464565b606580546001600160a01b03191690556105bc816113ad565b5f81806020019051810190610fa4919061211e565b8051604051632352490560e01b81526001600160a01b0391821660048201529192505f919085169063235249059060240160c0604051808303815f875af1158015610ff1573d5f5f3e3d5ffd5b505050506040513d601f19601f8201168201806040525081019061101591906122f3565b90508160e001515160011461103d576040516320e48c7360e11b815260040160405180910390fd5b61020061ffff168260e001515f8151811061105a5761105a61236d565b60200260200101515f015161ffff1610156110885760405163f15e32d560e01b815260040160405180910390fd5b8160e001515f8151811061109e5761109e61236d565b60200260200101516020015160ff165f146110cc5760405163954ccdeb60e01b815260040160405180910390fd5b8160e001515f815181106110e2576110e261236d565b602002602001015160400151515f1461110e576040516339de632360e11b815260040160405180910390fd5b60c082015151516001146111355760405163341a30e760e01b815260040160405180910390fd5b805160c08301515180515f9061114d5761114d61236d565b60200260200101511461117357604051637ae4bd5f60e01b815260040160405180910390fd5b806060015163ffffffff168260c001516060015163ffffffff16146111ab5760405163357ccf0160e01b815260040160405180910390fd5b806080015163ffffffff168260c001516080015163ffffffff16146111e257604051623b127d60e61b815260040160405180910390fd5b8060a001516001600160401b03168260c0015160a001516001600160401b031614611220576040516307a4f83360e11b815260040160405180910390fd5b7f0dfcd5ca69fd1388717b2c8957a5f27755c9f5255b01b4d48661eafcf91c146f816040516112b491905f60c082019050825182526001600160401b0360208401511660208301526001600160401b03604084015116604083015263ffffffff606084015116606083015263ffffffff60808401511660808301526001600160401b0360a08401511660a083015292915050565b60405180910390a150505050565b5f54610100900460ff166106415760405162461bcd60e51b815260040161046490612291565b6001600160a01b0381163b6113555760405162461bcd60e51b815260206004820152602d60248201527f455243313936373a206e657720696d706c656d656e746174696f6e206973206e60448201526c1bdd08184818dbdb9d1c9858dd609a1b6064820152608401610464565b5f5160206123aa5f395f51905f5280546001600160a01b0319166001600160a01b0392909216919091179055565b61138c836113fe565b5f825111806113985750805b15610ddc576113a7838361143d565b50505050565b603380546001600160a01b038381166001600160a01b0319831681179093556040519116919082907f8be0079c531659141344cd1fd0a4f28419497f9722a3daafe3b4186f6b6457e0905f90a35050565b611407816112e8565b6040516001600160a01b038216907fbc7cd75a20ee27fd9adebab32041f755214dbc6bffa90cc0225b39da2e5c2d3b905f90a250565b606061146283836040518060600160405280602781526020016123ca60279139611469565b9392505050565b60605f5f856001600160a01b0316856040516114859190612381565b5f60405180830381855af49150503d805f81146114bd576040519150601f19603f3d011682016040523d82523d5f602084013e6114c2565b606091505b50915091506114d3868383876114dd565b9695505050505050565b6060831561154b5782515f03611544576001600160a01b0385163b6115445760405162461bcd60e51b815260206004820152601d60248201527f416464726573733a2063616c6c20746f206e6f6e2d636f6e74726163740000006044820152606401610464565b5081611555565b611555838361155d565b949350505050565b81511561156d5781518083602001fd5b8060405162461bcd60e51b81526004016104649190612397565b6001600160a01b03811681146105bc575f5ffd5b5f602082840312156115ab575f5ffd5b813561146281611587565b634e487b7160e01b5f52604160045260245ffd5b604051606081016001600160401b03811182821017156115ec576115ec6115b6565b60405290565b604051608081016001600160401b03811182821017156115ec576115ec6115b6565b60405161020081016001600160401b03811182821017156115ec576115ec6115b6565b60405160c081016001600160401b03811182821017156115ec576115ec6115b6565b60405161012081016001600160401b03811182821017156115ec576115ec6115b6565b604051601f8201601f191681016001600160401b03811182821017156116a4576116a46115b6565b604052919050565b5f6001600160401b038211156116c4576116c46115b6565b50601f01601f191660200190565b5f82601f8301126116e1575f5ffd5b81356116f46116ef826116ac565b61167c565b818152846020838601011115611708575f5ffd5b816020850160208301375f918101602001919091529392505050565b5f5f60408385031215611735575f5ffd5b823561174081611587565b915060208301356001600160401b0381111561175a575f5ffd5b611766858286016116d2565b9150509250929050565b5f5f83601f840112611780575f5ffd5b5081356001600160401b03811115611796575f5ffd5b6020830191508360208285010111156117ad575f5ffd5b9250929050565b5f5f5f5f5f5f606087890312156117c9575f5ffd5b86356001600160401b038111156117de575f5ffd5b6117ea89828a01611770565b90975095505060208701356001600160401b03811115611808575f5ffd5b61181489828a01611770565b90955093505060408701356001600160401b03811115611832575f5ffd5b61183e89828a01611770565b979a9699509497509295939492505050565b5f8151808452602084019350602083015f5b82811015611880578151865260209586019590910190600101611862565b5093949350505050565b5f82825180855260208501945060208160051b830101602085015f5b8381101561190057601f19858403018852815161ffff815116845260ff602082015116602085015260408101519050606060408501526118e96060850182611850565b6020998a01999094509290920191506001016118a6565b50909695505050505050565b60a08152825160a08201525f602084015161026060c084015261193361030084018261188a565b90506040850151609f198483030160e08501526119508282611850565b915050606085015161010084015260808501516119796101208501826001600160a01b03169052565b5060a08501516001600160a01b0381166101408501525060c08501516001600160401b0381166101608501525060e08501516001600160401b0381166101808501525061010085015163ffffffff81166101a08501525061012085015163ffffffff81166101c08501525061014085015163ffffffff81166101e0850152506101608501516001600160401b038116610200850152506101808501516001600160401b038116610220850152506101a08501516001600160401b038116610240850152506101c08501516102608401526101e0850151805160ff16610280850152602081015163ffffffff9081166102a086015260408201516001600160401b03166102c08601526060820151166102e085015250905061146260208301848051825260018060a01b0360208201511660208301526001600160401b0360408201511660408301526001600160401b0360608201511660608301525050565b6020808252602c908201527f46756e6374696f6e206d7573742062652063616c6c6564207468726f7567682060408201526b19195b1959d85d1958d85b1b60a21b606082015260800190565b6020808252602c908201527f46756e6374696f6e206d7573742062652063616c6c6564207468726f7567682060408201526b6163746976652070726f787960a01b606082015260800190565b5f5f60408385031215611b81575f5ffd5b82356001600160401b03811115611b96575f5ffd5b611ba2858286016116d2565b92505060208301356001600160401b0381111561175a575f5ffd5b80518015158114611bcc575f5ffd5b919050565b5f60208284031215611be1575f5ffd5b61146282611bbd565b5f81518084528060208401602086015e5f602082860101526020601f19601f83011685010191505092915050565b606081525f611c2a6060830184611bea565b82810360208085018290525f8084529181016040958601528201529190910192915050565b5f6001600160401b03821115611c6757611c676115b6565b5060051b60200190565b805160ff81168114611bcc575f5ffd5b5f82601f830112611c90575f5ffd5b8151611c9e6116ef82611c4f565b8082825260208201915060208360051b860101925085831115611cbf575f5ffd5b602085015b83811015611cdc578051835260209283019201611cc4565b5095945050505050565b5f82601f830112611cf5575f5ffd5b8151611d036116ef82611c4f565b8082825260208201915060208360051b860101925085831115611d24575f5ffd5b602085015b83811015611cdc5780516001600160401b03811115611d46575f5ffd5b86016060818903601f19011215611d5b575f5ffd5b611d636115ca565b602082015161ffff81168114611d77575f5ffd5b8152611d8560408301611c71565b602082015260608201516001600160401b03811115611da2575f5ffd5b611db18a602083860101611c81565b60408301525084525060209283019201611d29565b8051611bcc81611587565b80516001600160401b0381168114611bcc575f5ffd5b805163ffffffff81168114611bcc575f5ffd5b5f60808284031215611e0a575f5ffd5b611e126115f2565b9050611e1d82611c71565b8152611e2b60208301611de7565b6020820152611e3c60408301611dd1565b6040820152611e4d60608301611de7565b606082015292915050565b5f60808284031215611e68575f5ffd5b611e706115f2565b825181526020830151909150611e8581611587565b6020820152611e9660408301611dd1565b6040820152611e4d60608301611dd1565b5f5f60a08385031215611eb8575f5ffd5b82516001600160401b03811115611ecd575f5ffd5b83016102608186031215611edf575f5ffd5b611ee7611614565b8151815260208201516001600160401b03811115611f03575f5ffd5b611f0f87828501611ce6565b60208301525060408201516001600160401b03811115611f2d575f5ffd5b611f3987828501611c81565b60408301525060608281015190820152611f5560808301611dc6565b6080820152611f6660a08301611dc6565b60a0820152611f7760c08301611dd1565b60c0820152611f8860e08301611dd1565b60e0820152611f9a6101008301611de7565b610100820152611fad6101208301611de7565b610120820152611fc06101408301611de7565b610140820152611fd36101608301611dd1565b610160820152611fe66101808301611dd1565b610180820152611ff96101a08301611dd1565b6101a08201526101c08281015190820152612018866101e08401611dfa565b6101e0820152925061202f90508460208501611e58565b90509250929050565b5f60c08284031215612048575f5ffd5b612050611637565b905081516001600160401b03811115612067575f5ffd5b61207384828501611c81565b82525061208260208301611c71565b602082015261209360408301611c71565b60408201526120a460608301611de7565b60608201526120b560808301611de7565b60808201526120c660a08301611dd1565b60a082015292915050565b5f82601f8301126120e0575f5ffd5b81516120ee6116ef826116ac565b818152846020838601011115612102575f5ffd5b8160208501602083015e5f918101602001919091529392505050565b5f6020828403121561212e575f5ffd5b81516001600160401b03811115612143575f5ffd5b82016101208185031215612155575f5ffd5b61215d611659565b61216682611dc6565b815261217460208301611dc6565b60208201526040828101519082015261218f60608301611dd1565b60608201526121a060808301611dd1565b60808201526121b160a08301611bbd565b60a082015260c08201516001600160401b038111156121ce575f5ffd5b6121da86828501612038565b60c08301525060e08201516001600160401b038111156121f8575f5ffd5b61220486828501611ce6565b60e0830152506101008201516001600160401b03811115612223575f5ffd5b61222f868285016120d1565b61010083015250949350505050565b606081525f6122506060830186611bea565b8281036020840152838152838560208301375f8185016020908101829052601f909501601f1916909101838103850160409485015293840152500192915050565b6020808252602b908201527f496e697469616c697a61626c653a20636f6e7472616374206973206e6f74206960408201526a6e697469616c697a696e6760a81b606082015260800190565b5f602082840312156122ec575f5ffd5b5051919050565b5f60c0828403128015612304575f5ffd5b5061230d611637565b8251815261231d60208401611dd1565b602082015261232e60408401611dd1565b604082015261233f60608401611de7565b606082015261235060808401611de7565b608082015261236160a08401611dd1565b60a08201529392505050565b634e487b7160e01b5f52603260045260245ffd5b5f82518060208501845e5f920191825250919050565b602081525f6114626020830184611bea56fe360894a13ba1a3210667c828492db98dca3e2076cc3735a920a3ca505d382bbc416464726573733a206c6f772d6c6576656c2064656c65676174652063616c6c206661696c6564a26469706673582212209cec3bc64cce55e473628711df63fac5fcec38d3cbf1809de8bc7bcf00dbaa9b64736f6c634300081e0033","linkReferences":{}},"methodIdentifiers":{"MIN_TXS_PER_FORCED_INCLUSION()":"936ee868","acceptOwnership()":"79ba5097","forcedInclusionStore()":"f749e9d4","impl()":"8abf6077","inNonReentrant()":"3075db56","inbox()":"fb0e722b","init(address)":"19ab453c","owner()":"8da5cb5b","pause()":"8456cb59","paused()":"5c975abb","pendingOwner()":"e30c3978","preconfRouter()":"f4bb9077","proxiableUUID()":"52d1902d","renounceOwnership()":"715018a6","resolver()":"04f3bcec","transferOwnership(address)":"f2fde38b","unpause()":"3f4ba83a","upgradeTo(address)":"3659cfe6","upgradeToAndCall(address,bytes)":"4f1ef286","v4ProposeBatch(bytes,bytes,bytes)":"e2d54d39"},"storageLayout":{"storage":[{"astId":30356,"contract":"contracts/layer1/forced-inclusion/TaikoWrapper.sol:TaikoWrapper","label":"_initialized","offset":0,"slot":"0","type":"t_uint8"},{"astId":30359,"contract":"contracts/layer1/forced-inclusion/TaikoWrapper.sol:TaikoWrapper","label":"_initializing","offset":1,"slot":"0","type":"t_bool"},{"astId":35695,"contract":"contracts/layer1/forced-inclusion/TaikoWrapper.sol:TaikoWrapper","label":"__gap","offset":0,"slot":"1","type":"t_array(t_uint256)50_storage"},{"astId":30101,"contract":"contracts/layer1/forced-inclusion/TaikoWrapper.sol:TaikoWrapper","label":"_owner","offset":0,"slot":"51","type":"t_address"},{"astId":30221,"contract":"contracts/layer1/forced-inclusion/TaikoWrapper.sol:TaikoWrapper","label":"__gap","offset":0,"slot":"52","type":"t_array(t_uint256)49_storage"},{"astId":29994,"contract":"contracts/layer1/forced-inclusion/TaikoWrapper.sol:TaikoWrapper","label":"_pendingOwner","offset":0,"slot":"101","type":"t_address"},{"astId":30088,"contract":"contracts/layer1/forced-inclusion/TaikoWrapper.sol:TaikoWrapper","label":"__gap","offset":0,"slot":"102","type":"t_array(t_uint256)49_storage"},{"astId":21251,"contract":"contracts/layer1/forced-inclusion/TaikoWrapper.sol:TaikoWrapper","label":"__gapFromOldAddressResolver","offset":0,"slot":"151","type":"t_array(t_uint256)50_storage"},{"astId":21254,"contract":"contracts/layer1/forced-inclusion/TaikoWrapper.sol:TaikoWrapper","label":"__reentry","offset":0,"slot":"201","type":"t_uint8"},{"astId":21256,"contract":"contracts/layer1/forced-inclusion/TaikoWrapper.sol:TaikoWrapper","label":"__paused","offset":1,"slot":"201","type":"t_uint8"},{"astId":21260,"contract":"contracts/layer1/forced-inclusion/TaikoWrapper.sol:TaikoWrapper","label":"__gap","offset":0,"slot":"202","type":"t_array(t_uint256)49_storage"},{"astId":9833,"contract":"contracts/layer1/forced-inclusion/TaikoWrapper.sol:TaikoWrapper","label":"__gap","offset":0,"slot":"251","type":"t_array(t_uint256)50_storage"}],"types":{"t_address":{"encoding":"inplace","label":"address","numberOfBytes":"20"},"t_array(t_uint256)49_storage":{"encoding":"inplace","label":"uint256[49]","numberOfBytes":"1568","base":"t_uint256"},"t_array(t_uint256)50_storage":{"encoding":"inplace","label":"uint256[50]","numberOfBytes":"1600","base":"t_uint256"},"t_bool":{"encoding":"inplace","label":"bool","numberOfBytes":"1"},"t_uint256":{"encoding":"inplace","label":"uint256","numberOfBytes":"32"},"t_uint8":{"encoding":"inplace","label":"uint8","numberOfBytes":"1"}}},"id":26}