{"abi":[{"type":"constructor","inputs":[{"name":"_resolver","type":"address","internalType":"address"},{"name":"_signalService","type":"address","internalType":"address"},{"name":"_pacayaForkHeight","type":"uint64","internalType":"uint64"}],"stateMutability":"nonpayable"},{"type":"function","name":"GOLDEN_TOUCH_ADDRESS","inputs":[],"outputs":[{"name":"","type":"address","internalType":"address"}],"stateMutability":"view"},{"type":"function","name":"acceptOwnership","inputs":[],"outputs":[],"stateMutability":"nonpayable"},{"type":"function","name":"adjustExcess","inputs":[{"name":"_currGasExcess","type":"uint64","internalType":"uint64"},{"name":"_currGasTarget","type":"uint64","internalType":"uint64"},{"name":"_newGasTarget","type":"uint64","internalType":"uint64"}],"outputs":[{"name":"newGasExcess_","type":"uint64","internalType":"uint64"}],"stateMutability":"pure"},{"type":"function","name":"anchor","inputs":[{"name":"_l1BlockHash","type":"bytes32","internalType":"bytes32"},{"name":"_l1StateRoot","type":"bytes32","internalType":"bytes32"},{"name":"_l1BlockId","type":"uint64","internalType":"uint64"},{"name":"_parentGasUsed","type":"uint32","internalType":"uint32"}],"outputs":[],"stateMutability":"nonpayable"},{"type":"function","name":"anchorV2","inputs":[{"name":"_anchorBlockId","type":"uint64","internalType":"uint64"},{"name":"_anchorStateRoot","type":"bytes32","internalType":"bytes32"},{"name":"_parentGasUsed","type":"uint32","internalType":"uint32"},{"name":"_baseFeeConfig","type":"tuple","internalType":"struct LibSharedData.BaseFeeConfig","components":[{"name":"adjustmentQuotient","type":"uint8","internalType":"uint8"},{"name":"sharingPctg","type":"uint8","internalType":"uint8"},{"name":"gasIssuancePerSecond","type":"uint32","internalType":"uint32"},{"name":"minGasExcess","type":"uint64","internalType":"uint64"},{"name":"maxGasIssuancePerBlock","type":"uint32","internalType":"uint32"}]}],"outputs":[],"stateMutability":"nonpayable"},{"type":"function","name":"anchorV3","inputs":[{"name":"_anchorBlockId","type":"uint64","internalType":"uint64"},{"name":"_anchorStateRoot","type":"bytes32","internalType":"bytes32"},{"name":"_parentGasUsed","type":"uint32","internalType":"uint32"},{"name":"_baseFeeConfig","type":"tuple","internalType":"struct LibSharedData.BaseFeeConfig","components":[{"name":"adjustmentQuotient","type":"uint8","internalType":"uint8"},{"name":"sharingPctg","type":"uint8","internalType":"uint8"},{"name":"gasIssuancePerSecond","type":"uint32","internalType":"uint32"},{"name":"minGasExcess","type":"uint64","internalType":"uint64"},{"name":"maxGasIssuancePerBlock","type":"uint32","internalType":"uint32"}]},{"name":"_signalSlots","type":"bytes32[]","internalType":"bytes32[]"}],"outputs":[],"stateMutability":"nonpayable"},{"type":"function","name":"calculateBaseFee","inputs":[{"name":"_baseFeeConfig","type":"tuple","internalType":"struct LibSharedData.BaseFeeConfig","components":[{"name":"adjustmentQuotient","type":"uint8","internalType":"uint8"},{"name":"sharingPctg","type":"uint8","internalType":"uint8"},{"name":"gasIssuancePerSecond","type":"uint32","internalType":"uint32"},{"name":"minGasExcess","type":"uint64","internalType":"uint64"},{"name":"maxGasIssuancePerBlock","type":"uint32","internalType":"uint32"}]},{"name":"_blocktime","type":"uint64","internalType":"uint64"},{"name":"_parentGasExcess","type":"uint64","internalType":"uint64"},{"name":"_parentGasUsed","type":"uint32","internalType":"uint32"}],"outputs":[{"name":"basefee_","type":"uint256","internalType":"uint256"},{"name":"parentGasExcess_","type":"uint64","internalType":"uint64"}],"stateMutability":"pure"},{"type":"function","name":"getBasefee","inputs":[{"name":"_anchorBlockId","type":"uint64","internalType":"uint64"},{"name":"_parentGasUsed","type":"uint32","internalType":"uint32"}],"outputs":[{"name":"basefee_","type":"uint256","internalType":"uint256"},{"name":"parentGasExcess_","type":"uint64","internalType":"uint64"}],"stateMutability":"pure"},{"type":"function","name":"getBasefeeV2","inputs":[{"name":"_parentGasUsed","type":"uint32","internalType":"uint32"},{"name":"_blockTimestamp","type":"uint64","internalType":"uint64"},{"name":"_baseFeeConfig","type":"tuple","internalType":"struct LibSharedData.BaseFeeConfig","components":[{"name":"adjustmentQuotient","type":"uint8","internalType":"uint8"},{"name":"sharingPctg","type":"uint8","internalType":"uint8"},{"name":"gasIssuancePerSecond","type":"uint32","internalType":"uint32"},{"name":"minGasExcess","type":"uint64","internalType":"uint64"},{"name":"maxGasIssuancePerBlock","type":"uint32","internalType":"uint32"}]}],"outputs":[{"name":"basefee_","type":"uint256","internalType":"uint256"},{"name":"newGasTarget_","type":"uint64","internalType":"uint64"},{"name":"newGasExcess_","type":"uint64","internalType":"uint64"}],"stateMutability":"view"},{"type":"function","name":"getBlockHash","inputs":[{"name":"_blockId","type":"uint256","internalType":"uint256"}],"outputs":[{"name":"","type":"bytes32","internalType":"bytes32"}],"stateMutability":"view"},{"type":"function","name":"impl","inputs":[],"outputs":[{"name":"","type":"address","internalType":"address"}],"stateMutability":"view"},{"type":"function","name":"inNonReentrant","inputs":[],"outputs":[{"name":"","type":"bool","internalType":"bool"}],"stateMutability":"view"},{"type":"function","name":"init","inputs":[{"name":"_owner","type":"address","internalType":"address"},{"name":"_l1ChainId","type":"uint64","internalType":"uint64"},{"name":"_initialGasExcess","type":"uint64","internalType":"uint64"}],"outputs":[],"stateMutability":"nonpayable"},{"type":"function","name":"isOnL1","inputs":[],"outputs":[{"name":"","type":"bool","internalType":"bool"}],"stateMutability":"pure"},{"type":"function","name":"l1ChainId","inputs":[],"outputs":[{"name":"","type":"uint64","internalType":"uint64"}],"stateMutability":"view"},{"type":"function","name":"lastSyncedBlock","inputs":[],"outputs":[{"name":"","type":"uint64","internalType":"uint64"}],"stateMutability":"view"},{"type":"function","name":"owner","inputs":[],"outputs":[{"name":"","type":"address","internalType":"address"}],"stateMutability":"view"},{"type":"function","name":"pacayaForkHeight","inputs":[],"outputs":[{"name":"","type":"uint64","internalType":"uint64"}],"stateMutability":"view"},{"type":"function","name":"parentGasExcess","inputs":[],"outputs":[{"name":"","type":"uint64","internalType":"uint64"}],"stateMutability":"view"},{"type":"function","name":"parentGasTarget","inputs":[],"outputs":[{"name":"","type":"uint64","internalType":"uint64"}],"stateMutability":"view"},{"type":"function","name":"parentTimestamp","inputs":[],"outputs":[{"name":"","type":"uint64","internalType":"uint64"}],"stateMutability":"view"},{"type":"function","name":"pause","inputs":[],"outputs":[],"stateMutability":"nonpayable"},{"type":"function","name":"paused","inputs":[],"outputs":[{"name":"","type":"bool","internalType":"bool"}],"stateMutability":"view"},{"type":"function","name":"pendingOwner","inputs":[],"outputs":[{"name":"","type":"address","internalType":"address"}],"stateMutability":"view"},{"type":"function","name":"proxiableUUID","inputs":[],"outputs":[{"name":"","type":"bytes32","internalType":"bytes32"}],"stateMutability":"view"},{"type":"function","name":"publicInputHash","inputs":[],"outputs":[{"name":"","type":"bytes32","internalType":"bytes32"}],"stateMutability":"view"},{"type":"function","name":"renounceOwnership","inputs":[],"outputs":[],"stateMutability":"nonpayable"},{"type":"function","name":"resolver","inputs":[],"outputs":[{"name":"","type":"address","internalType":"address"}],"stateMutability":"view"},{"type":"function","name":"signalService","inputs":[],"outputs":[{"name":"","type":"address","internalType":"contract ISignalService"}],"stateMutability":"view"},{"type":"function","name":"skipFeeCheck","inputs":[],"outputs":[{"name":"","type":"bool","internalType":"bool"}],"stateMutability":"pure"},{"type":"function","name":"transferOwnership","inputs":[{"name":"newOwner","type":"address","internalType":"address"}],"outputs":[],"stateMutability":"nonpayable"},{"type":"function","name":"unpause","inputs":[],"outputs":[],"stateMutability":"nonpayable"},{"type":"function","name":"upgradeTo","inputs":[{"name":"newImplementation","type":"address","internalType":"address"}],"outputs":[],"stateMutability":"nonpayable"},{"type":"function","name":"upgradeToAndCall","inputs":[{"name":"newImplementation","type":"address","internalType":"address"},{"name":"data","type":"bytes","internalType":"bytes"}],"outputs":[],"stateMutability":"payable"},{"type":"function","name":"withdraw","inputs":[{"name":"_token","type":"address","internalType":"address"},{"name":"_to","type":"address","internalType":"address"}],"outputs":[],"stateMutability":"nonpayable"},{"type":"event","name":"AdminChanged","inputs":[{"name":"previousAdmin","type":"address","indexed":false,"internalType":"address"},{"name":"newAdmin","type":"address","indexed":false,"internalType":"address"}],"anonymous":false},{"type":"event","name":"Anchored","inputs":[{"name":"parentHash","type":"bytes32","indexed":false,"internalType":"bytes32"},{"name":"parentGasExcess","type":"uint64","indexed":false,"internalType":"uint64"}],"anonymous":false},{"type":"event","name":"BeaconUpgraded","inputs":[{"name":"beacon","type":"address","indexed":true,"internalType":"address"}],"anonymous":false},{"type":"event","name":"EIP1559Update","inputs":[{"name":"oldGasTarget","type":"uint64","indexed":false,"internalType":"uint64"},{"name":"newGasTarget","type":"uint64","indexed":false,"internalType":"uint64"},{"name":"oldGasExcess","type":"uint64","indexed":false,"internalType":"uint64"},{"name":"newGasExcess","type":"uint64","indexed":false,"internalType":"uint64"},{"name":"basefee","type":"uint256","indexed":false,"internalType":"uint256"}],"anonymous":false},{"type":"event","name":"Initialized","inputs":[{"name":"version","type":"uint8","indexed":false,"internalType":"uint8"}],"anonymous":false},{"type":"event","name":"OwnershipTransferStarted","inputs":[{"name":"previousOwner","type":"address","indexed":true,"internalType":"address"},{"name":"newOwner","type":"address","indexed":true,"internalType":"address"}],"anonymous":false},{"type":"event","name":"OwnershipTransferred","inputs":[{"name":"previousOwner","type":"address","indexed":true,"internalType":"address"},{"name":"newOwner","type":"address","indexed":true,"internalType":"address"}],"anonymous":false},{"type":"event","name":"Paused","inputs":[{"name":"account","type":"address","indexed":false,"internalType":"address"}],"anonymous":false},{"type":"event","name":"Unpaused","inputs":[{"name":"account","type":"address","indexed":false,"internalType":"address"}],"anonymous":false},{"type":"event","name":"Upgraded","inputs":[{"name":"implementation","type":"address","indexed":true,"internalType":"address"}],"anonymous":false},{"type":"error","name":"ACCESS_DENIED","inputs":[]},{"type":"error","name":"ETH_TRANSFER_FAILED","inputs":[]},{"type":"error","name":"FUNC_NOT_IMPLEMENTED","inputs":[]},{"type":"error","name":"INVALID_PAUSE_STATUS","inputs":[]},{"type":"error","name":"L2_BASEFEE_MISMATCH","inputs":[]},{"type":"error","name":"L2_DEPRECATED_METHOD","inputs":[]},{"type":"error","name":"L2_FORK_ERROR","inputs":[]},{"type":"error","name":"L2_INVALID_L1_CHAIN_ID","inputs":[]},{"type":"error","name":"L2_INVALID_L2_CHAIN_ID","inputs":[]},{"type":"error","name":"L2_INVALID_SENDER","inputs":[]},{"type":"error","name":"L2_PUBLIC_INPUT_HASH_MISMATCH","inputs":[]},{"type":"error","name":"L2_TOO_LATE","inputs":[]},{"type":"error","name":"REENTRANT_CALL","inputs":[]},{"type":"error","name":"RESOLVER_NOT_FOUND","inputs":[]},{"type":"error","name":"ZERO_ADDRESS","inputs":[]},{"type":"error","name":"ZERO_VALUE","inputs":[]}],"bytecode":{"object":"0x61010060405230608052348015610014575f5ffd5b50604051612ffd380380612ffd83398101604081905261003391610141565b6001600160a01b03831660a0528261004961006a565b506001600160a01b0390911660c0526001600160401b031660e05250610191565b5f54610100900460ff16156100d55760405162461bcd60e51b815260206004820152602760248201527f496e697469616c697a61626c653a20636f6e747261637420697320696e697469604482015266616c697a696e6760c81b606482015260840160405180910390fd5b5f5460ff90811614610124575f805460ff191660ff9081179091556040519081527f7f26b83ff96e1f2b6a682f133852f6798a09c465da95921460cefb38474024989060200160405180910390a15b565b80516001600160a01b038116811461013c575f5ffd5b919050565b5f5f5f60608486031215610153575f5ffd5b61015c84610126565b925061016a60208501610126565b60408501519092506001600160401b0381168114610186575f5ffd5b809150509250925092565b60805160a05160c05160e051612dfa6102035f395f81816105820152818161093001526113ce01525f81816103d9015281816109c301526117a501525f818161020e0152611bde01525f81816106c70152818161071001528181610a4801528181610a880152610b030152612dfa5ff3fe6080604052600436106101fc575f3560e01c8063893f546011610113578063ba9f41e81161009d578063e902461a1161006d578063e902461a146105f5578063ee82ac5e1461060f578063f2fde38b1461062e578063f940e3851461064d578063fd85eb2d1461066c575f5ffd5b8063ba9f41e814610571578063da69d3db146105a4578063dac5df78146105c3578063e30c3978146105d8575f5ffd5b8063a4b23554116100e3578063a4b23554146102a1578063a7137c0f146104d1578063a7e022d1146104f7578063b310e9e914610533578063b8c7b30c14610552575f5ffd5b8063893f5460146104375780638abf60771461047b5780638da5cb5b1461048f5780639ee512f2146104ac575f5ffd5b806348080a45116101945780635c975abb116101645780635c975abb146103a857806362d09453146103c8578063715018a6146103fb57806379ba50971461040f5780638456cb5914610423575f5ffd5b806348080a451461032e5780634f1ef2861461034d57806352d1902d14610360578063539b8ade14610382575f5ffd5b80633075db56116101cf5780633075db56146102bf57806333d5ac9b146102d35780633659cfe6146102f95780633f4ba83a1461031a575f5ffd5b806304f3bcec1461020057806312622e5b1461024b578063136dc4a8146102825780632f980473146102a1575b5f5ffd5b34801561020b575f5ffd5b507f00000000000000000000000000000000000000000000000000000000000000005b6040516001600160a01b0390911681526020015b60405180910390f35b348015610256575f5ffd5b5060fe5461026a906001600160401b031681565b6040516001600160401b039091168152602001610242565b34801561028d575f5ffd5b5061026a61029c36600461269a565b61068b565b3480156102ac575f5ffd5b505f5b6040519015158152602001610242565b3480156102ca575f5ffd5b506102af6106a5565b3480156102de575f5ffd5b5060fd5461026a90600160401b90046001600160401b031681565b348015610304575f5ffd5b506103186103133660046126ee565b6106bd565b005b348015610325575f5ffd5b5061031861078d565b348015610339575f5ffd5b50610318610348366004612733565b610811565b61031861035b3660046127f3565b610a3e565b34801561036b575f5ffd5b50610374610af7565b604051908152602001610242565b34801561038d575f5ffd5b5060fd5461026a90600160801b90046001600160401b031681565b3480156103b3575f5ffd5b506102af60c954610100900460ff1660021490565b3480156103d3575f5ffd5b5061022e7f000000000000000000000000000000000000000000000000000000000000000081565b348015610406575f5ffd5b50610318610ba8565b34801561041a575f5ffd5b50610318610bb9565b34801561042e575f5ffd5b50610318610c30565b348015610442575f5ffd5b506104566104513660046128b6565b610caf565b604080519384526001600160401b039283166020850152911690820152606001610242565b348015610486575f5ffd5b5061022e610ddb565b34801561049a575f5ffd5b506033546001600160a01b031661022e565b3480156104b7575f5ffd5b5061022e71777735367b36bc9b61c50022d9d0700db4ec81565b3480156104dc575f5ffd5b5060fd5461026a90600160c01b90046001600160401b031681565b348015610502575f5ffd5b506105166105113660046128ee565b610de9565b604080519283526001600160401b03909116602083015201610242565b34801561053e575f5ffd5b5061031861054d36600461291f565b610e04565b34801561055d575f5ffd5b5060fd5461026a906001600160401b031681565b34801561057c575f5ffd5b5061026a7f000000000000000000000000000000000000000000000000000000000000000081565b3480156105af575f5ffd5b506103186105be36600461293c565b611036565b3480156105ce575f5ffd5b5061037460fc5481565b3480156105e3575f5ffd5b506065546001600160a01b031661022e565b348015610600575f5ffd5b5061051661051136600461297f565b34801561061a575f5ffd5b506103746106293660046129c7565b61104f565b348015610639575f5ffd5b506103186106483660046126ee565b611087565b348015610658575f5ffd5b506103186106673660046129de565b6110f8565b348015610677575f5ffd5b50610318610686366004612a15565b6112af565b5f6040516372c0090b60e11b815260040160405180910390fd5b5f60026106b460c95460ff1690565b60ff1614905090565b6001600160a01b037f000000000000000000000000000000000000000000000000000000000000000016300361070e5760405162461bcd60e51b815260040161070590612a56565b60405180910390fd5b7f00000000000000000000000000000000000000000000000000000000000000006001600160a01b031661074061145e565b6001600160a01b0316146107665760405162461bcd60e51b815260040161070590612aa2565b61076f81611479565b604080515f8082526020820190925261078a91839190611481565b50565b6107a160c954610100900460ff1660021490565b6107be5760405163bae6e2a960e01b815260040160405180910390fd5b6107d260c9805461ff001916610100179055565b6040513381527f5db9ee0a495bf2e6ff9c91a7834c1ba4fdd244a5e8aa4e537bd38aeae4b073aa9060200160405180910390a161080f335f6115f0565b565b845f8190036108335760405163ec73295960e01b815260040160405180910390fd5b866001600160401b0316805f0361085d5760405163ec73295960e01b815260040160405180910390fd5b61086d6060860160408701612aee565b63ffffffff16805f036108935760405163ec73295960e01b815260040160405180910390fd5b6108a06020870187612b07565b60ff16805f036108c35760405163ec73295960e01b815260040160405180910390fd5b3371777735367b36bc9b61c50022d9d0700db4ec146108f557604051636494e9f760e01b815260040160405180910390fd5b600261090360c95460ff1690565b60ff16036109245760405163dfc60d8560e01b815260040160405180910390fd5b61092e60026115f8565b7f00000000000000000000000000000000000000000000000000000000000000006001600160401b031643101561097857604051631799c89b60e01b815260040160405180910390fd5b5f610984600143612b3b565b905061098f8161160e565b6109998989611646565b6109a38b8b61172d565b6109ac8161184b565b604051633b78c86560e01b81526001600160a01b037f00000000000000000000000000000000000000000000000000000000000000001690633b78c865906109fa908a908a90600401612b4e565b5f604051808303815f87803b158015610a11575f5ffd5b505af1158015610a23573d5f5f3e3d5ffd5b5050505050610a3260016115f8565b50505050505050505050565b6001600160a01b037f0000000000000000000000000000000000000000000000000000000000000000163003610a865760405162461bcd60e51b815260040161070590612a56565b7f00000000000000000000000000000000000000000000000000000000000000006001600160a01b0316610ab861145e565b6001600160a01b031614610ade5760405162461bcd60e51b815260040161070590612aa2565b610ae782611479565b610af382826001611481565b5050565b5f306001600160a01b037f00000000000000000000000000000000000000000000000000000000000000001614610b965760405162461bcd60e51b815260206004820152603860248201527f555550535570677261646561626c653a206d757374206e6f742062652063616c60448201527f6c6564207468726f7567682064656c656761746563616c6c00000000000000006064820152608401610705565b505f516020612d7e5f395f51905f5290565b610bb06118e2565b61080f5f61193c565b60655433906001600160a01b03168114610c275760405162461bcd60e51b815260206004820152602960248201527f4f776e61626c6532537465703a2063616c6c6572206973206e6f7420746865206044820152683732bb9037bbb732b960b91b6064820152608401610705565b61078a8161193c565b610c4460c954610100900460ff1660021490565b15610c625760405163bae6e2a960e01b815260040160405180910390fd5b60c9805461ff0019166102001790556040513381527f62e78cea01bee320cd4e420270b5ea74000d11b0c9f74754ebdbfc544b05a2589060200160405180910390a161080f3360016115f0565b5f808080610cc06020860186612b07565b60ff16610cd36060870160408801612aee565b63ffffffff16610ce39190612b85565b60fd54909150610d07906001600160401b03600160c01b8204811691849116611955565b90935091505f610d1d6060870160408801612aee565b63ffffffff1660fd60109054906101000a90046001600160401b031688610d449190612bae565b610d4e9190612b85565b9050610d6060a0870160808801612aee565b63ffffffff1615801590610d915750610d7f60a0870160808801612aee565b63ffffffff16816001600160401b0316115b15610daf57610da660a0870160808801612aee565b63ffffffff1690505b610dcb8484838b610dc660808c0160608d01612bcd565b611a6d565b9099949850965092945050505050565b5f610de461145e565b905090565b5f5f6040516372c0090b60e11b815260040160405180910390fd5b5f54610100900460ff1615808015610e2257505f54600160ff909116105b80610e3b5750303b158015610e3b57505f5460ff166001145b610e9e5760405162461bcd60e51b815260206004820152602e60248201527f496e697469616c697a61626c653a20636f6e747261637420697320616c72656160448201526d191e481a5b9a5d1a585b1a5e995960921b6064820152608401610705565b5f805460ff191660011790558015610ebf575f805461ff0019166101001790555b610ec884611aed565b826001600160401b03165f03610ef1576040516308279a2560e31b815260040160405180910390fd5b46836001600160401b031603610f1a576040516308279a2560e31b815260040160405180910390fd5b60014611610f3b57604051638f972ecb60e01b815260040160405180910390fd5b6001600160401b03461115610f6357604051638f972ecb60e01b815260040160405180910390fd5b4315610fad5743600103610f94575f610f7d600143612b3b565b5f81815260fb602052604090209040905550610fad565b604051635a0f9e4160e11b815260040160405180910390fd5b60fe80546001600160401b0380861667ffffffffffffffff199283161790925560fd805492851692909116919091179055610fe743611b4b565b5060fc558015611030575f805461ff0019169055604051600181527f7f26b83ff96e1f2b6a682f133852f6798a09c465da95921460cefb38474024989060200160405180910390a15b50505050565b6040516372c0090b60e11b815260040160405180910390fd5b5f43821061105e57505f919050565b4361106b83610100612be6565b1061107557504090565b505f90815260fb602052604090205490565b61108f6118e2565b606580546001600160a01b0383166001600160a01b031990911681179091556110c06033546001600160a01b031690565b6001600160a01b03167f38d16b8cac22d99fc7c124b9cd0de2d3fa1faef420bfe791d8c362d765e2270060405160405180910390a350565b806001600160a01b0381166111205760405163538ba4f960e01b815260040160405180910390fd5b61113460c954610100900460ff1660021490565b156111525760405163bae6e2a960e01b815260040160405180910390fd5b693bb4ba34323930bbb2b960b11b6111726033546001600160a01b031690565b6001600160a01b0316336001600160a01b031614806111ac5750611197816001611bdb565b6001600160a01b0316336001600160a01b0316145b6111c9576040516395383ea160e01b815260040160405180910390fd5b60026111d760c95460ff1690565b60ff16036111f85760405163dfc60d8560e01b815260040160405180910390fd5b61120260026115f8565b6001600160a01b038416611228576112236001600160a01b03841647611c7d565b6112a5565b6040516370a0823160e01b81523060048201526112a59084906001600160a01b038716906370a0823190602401602060405180830381865afa158015611270573d5f5f3e3d5ffd5b505050506040513d601f19601f820116820180604052508101906112949190612bf9565b6001600160a01b0387169190611c88565b61103060016115f8565b825f8190036112d15760405163ec73295960e01b815260040160405180910390fd5b846001600160401b0316805f036112fb5760405163ec73295960e01b815260040160405180910390fd5b61130b6060840160408501612aee565b63ffffffff16805f036113315760405163ec73295960e01b815260040160405180910390fd5b61133e6020850185612b07565b60ff16805f036113615760405163ec73295960e01b815260040160405180910390fd5b3371777735367b36bc9b61c50022d9d0700db4ec1461139357604051636494e9f760e01b815260040160405180910390fd5b60026113a160c95460ff1690565b60ff16036113c25760405163dfc60d8560e01b815260040160405180910390fd5b6113cc60026115f8565b7f00000000000000000000000000000000000000000000000000000000000000006001600160401b0316431061141557604051631799c89b60e01b815260040160405180910390fd5b5f611421600143612b3b565b905061142c8161160e565b6114368787611646565b611440898961172d565b6114498161184b565b5061145460016115f8565b5050505050505050565b5f516020612d7e5f395f51905f52546001600160a01b031690565b61078a6118e2565b7f4910fdfa16fed3260ed0e7147f7cc6da11a60208b5b9406d12a635614ffd91435460ff16156114b9576114b483611cda565b505050565b826001600160a01b03166352d1902d6040518163ffffffff1660e01b8152600401602060405180830381865afa925050508015611513575060408051601f3d908101601f1916820190925261151091810190612bf9565b60015b6115765760405162461bcd60e51b815260206004820152602e60248201527f45524331393637557067726164653a206e657720696d706c656d656e7461746960448201526d6f6e206973206e6f74205555505360901b6064820152608401610705565b5f516020612d7e5f395f51905f5281146115e45760405162461bcd60e51b815260206004820152602960248201527f45524331393637557067726164653a20756e737570706f727465642070726f786044820152681a58589b195555525160ba1b6064820152608401610705565b506114b4838383611d75565b610af36118e2565b60c9805460ff191660ff92909216919091179055565b5f5f61161983611b4b565b915091508160fc541461163f5760405163d719258d60e01b815260040160405180910390fd5b60fc555050565b5f5f5f611654854286610caf565b9250925092508248148061166557505f5b611682576040516336d54d4f60e11b815260040160405180910390fd5b60fd5460408051600160c01b83046001600160401b039081168252858116602083015292831681830152918316606083015260808201859052517f781ae5c2215806150d5c71a4ed5336e5dc3ad32aef04fc0f626a6ee0c2f8d1c89181900360a00190a160fd805477ffffffffffffffffffffffffffffffff000000000000000016600160c01b6001600160401b039485160267ffffffffffffffff19161791909216179055505050565b60fd546001600160401b03600160401b90910481169083161161174e575050565b60fe546040516313e4299d60e21b81526001600160401b0391821660048201527f73e6d340850343cc6f001515dc593377337c95a6ffe034fe1e844d4dab5da16960248201529083166044820152606481018290527f00000000000000000000000000000000000000000000000000000000000000006001600160a01b031690634f90a674906084016020604051808303815f875af11580156117f3573d5f5f3e3d5ffd5b505050506040513d601f19601f820116820180604052508101906118179190612bf9565b505060fd80546001600160401b03909216600160401b026fffffffffffffffff000000000000000019909216919091179055565b5f81815260fb60205260409081902082409081905560fd80546001600160401b03428116600160801b0267ffffffffffffffff60801b1983168117909355935192937f41c3f410f5c8ac36bb46b1dccef0de0f964087c9e688795fa02ecfa2c20b3fe4936118d6938693908316921691909117909182526001600160401b0316602082015260400190565b60405180910390a15050565b6033546001600160a01b0316331461080f5760405162461bcd60e51b815260206004820181905260248201527f4f776e61626c653a2063616c6c6572206973206e6f7420746865206f776e65726044820152606401610705565b606580546001600160a01b031916905561078a81611d99565b5f80670de0b6b3a76400006001600160401b038616820361197c5784849250925050611a65565b6001600160401b03851615806119a35750846001600160401b0316866001600160401b0316145b806119c157506119b4815f19612c24565b856001600160401b031610155b156119d25785849250925050611a65565b5f866001600160401b0316866001600160401b0316836119f29190612c37565b6119fc9190612c24565b9050801580611a1157506001600160ff1b0381115b15611a23578585935093505050611a65565b5f611a2d82611dea565b90505f828702828902015f811260018114611a4c578582049250611a50565b5f92505b505087611a5c82612007565b95509550505050505b935093915050565b5f8080611a8963ffffffff86166001600160401b038916612be6565b9050856001600160401b03168111611aa2576001611ab5565b611ab56001600160401b03871682612b3b565b9050611ad46001600160401b03611ace83878316612019565b9061202e565b9150611ae08883612042565b9250509550959350505050565b5f54610100900460ff16611b135760405162461bcd60e51b815260040161070590612c4e565b611b1b612084565b611b396001600160a01b03821615611b33578161193c565b3361193c565b5060c9805461ff001916610100179055565b5f5f611b5561265f565b46611fe08201525f5b60ff81108015611b715750806001018510155b15611ba2575f198186030180408360ff83066101008110611b9457611b94612c99565b602002015250600101611b5e565b5061200081209250834081611bb860ff87612cad565b6101008110611bc957611bc9612c99565b60200201526120009020919391925050565b5f7f0000000000000000000000000000000000000000000000000000000000000000604051633632b1fb60e11b81524660048201526024810185905283151560448201526001600160a01b039190911690636c6563f690606401602060405180830381865afa158015611c50573d5f5f3e3d5ffd5b505050506040513d601f19601f82011682018060405250810190611c749190612cc0565b90505b92915050565b610af382825a6120aa565b604080516001600160a01b038416602482015260448082018490528251808303909101815260649091019091526020810180516001600160e01b031663a9059cbb60e01b1790526114b49084906120ed565b6001600160a01b0381163b611d475760405162461bcd60e51b815260206004820152602d60248201527f455243313936373a206e657720696d706c656d656e746174696f6e206973206e60448201526c1bdd08184818dbdb9d1c9858dd609a1b6064820152608401610705565b5f516020612d7e5f395f51905f5280546001600160a01b0319166001600160a01b0392909216919091179055565b611d7e836121c0565b5f82511180611d8a5750805b156114b45761103083836121ff565b603380546001600160a01b038381166001600160a01b0319831681179093556040519116919082907f8be0079c531659141344cd1fd0a4f28419497f9722a3daafe3b4186f6b6457e0905f90a35050565b6fffffffffffffffffffffffffffffffff811160071b81811c6001600160401b031060061b1781811c63ffffffff1060051b1781811c61ffff1060041b1781811c60ff1060031b175f8213611e4657631615e6385f526004601cfd5b7ff8f9f9faf9fdfafbf9fdfcfdfafbfcfef9fafdfafcfcfbfefafafcfbffffffff6f8421084210842108cc6318c6db6d54be83831c1c601f161a1890811b609f90811c6c465772b2bbbb5f824b15207a3081018102606090811d6d0388eaa27412d5aca026815d636e018202811d6d0df99ac502031bf953eff472fdcc018202811d6d13cdffb29d51d99322bdff5f2211018202811d6d0a0f742023def783a307a986912e018202811d6d01920d8043ca89b5239253284e42018202811d6c0b7a86d7375468fac667a0a527016c29508e458543d8aa4df2abee7883018302821d6d0139601a2efabe717e604cbb4894018302821d6d02247f7a7b6594320649aa03aba1018302821d6c8c3f38e95a6b1ff2ab1c3b343619018302821d6d02384773bdf1ac5676facced60901901830290911d6cb9a025d814b29c212b8b1a07cd1901909102780a09507084cc699bb0e71ea869ffffffffffffffffffffffff190105711340daa0d5f769dba1915cef59f0815a5506029190037d0267a36c0c95b3975ab3ee5b203a7614a3f75373f047d803ae7b6687f2b302017d57115e47018c7177eebf7cd370a3356a1b7863008a5ae8028c72b88642840160ae1d90565b5f611c77826001600160401b0361202e565b5f8183116120275781611c74565b5090919050565b5f81831161203c5782611c74565b50919050565b5f826001600160401b03165f0361205b57506001611c77565b611c746001846001600160401b03166120748686612224565b61207e9190612c24565b90612019565b5f54610100900460ff1661080f5760405162461bcd60e51b815260040161070590612c4e565b815f036120b657505050565b6120d083838360405180602001604052805f8152506122b2565b6114b457604051634c67134d60e11b815260040160405180910390fd5b5f612141826040518060400160405280602081526020017f5361666545524332303a206c6f772d6c6576656c2063616c6c206661696c6564815250856001600160a01b03166122ef9092919063ffffffff16565b905080515f14806121615750808060200190518101906121619190612cdb565b6114b45760405162461bcd60e51b815260206004820152602a60248201527f5361666545524332303a204552433230206f7065726174696f6e20646964206e6044820152691bdd081cdd58d8d9595960b21b6064820152608401610705565b6121c981611cda565b6040516001600160a01b038216907fbc7cd75a20ee27fd9adebab32041f755214dbc6bffa90cc0225b39da2e5c2d3b905f90a250565b6060611c748383604051806060016040528060278152602001612d9e602791396122fd565b5f826001600160401b03165f0361223d5761223d612cfa565b5f836001600160401b0316836001600160401b0316670de0b6b3a76400006122659190612c37565b61226f9190612c24565b9050680755bf798b4a1bf1e481111561228e5750680755bf798b4a1bf1e45b670de0b6b3a76400006122a082612371565b6122aa9190612c24565b949350505050565b5f6001600160a01b0385166122da57604051634c67134d60e11b815260040160405180910390fd5b5f5f835160208501878988f195945050505050565b60606122aa84845f856124eb565b60605f5f856001600160a01b0316856040516123199190612d30565b5f60405180830381855af49150503d805f8114612351576040519150601f19603f3d011682016040523d82523d5f602084013e612356565b606091505b5091509150612367868383876125c2565b9695505050505050565b5f68023f2fa8f6da5b9d2819821361238857919050565b680755bf798b4a1bf1e582126123a55763a37bfec95f526004601cfd5b6503782dace9d9604e83901b0591505f60606bb17217f7d1cf79abc9e3b39884821b056001605f1b01901d6bb17217f7d1cf79abc9e3b39881029093036c240c330e9fb2d9cbaf0fd5aafb1981018102606090811d6d0277594991cfc85f6e2461837cd9018202811d6d1a521255e34f6a5061b25ef1c9c319018202811d6db1bbb201f443cf962f1a1d3db4a5018202811d6e02c72388d9f74f51a9331fed693f1419018202811d6e05180bb14799ab47a8a8cb2a527d57016d02d16720577bd19bf614176fe9ea6c10fe68e7fd37d0007b713f765084018402831d9081019084016d01d3967ed30fc4f89c02bab5708119010290911d6e0587f503bb6ea29d25fcb740196450019091026d360d7aeea093263ecc6e0ecb291760621b010574029d9dc38563c32e5c2f6dc192ee70ef65f9978af30260c3939093039290921c92915050565b60608247101561254c5760405162461bcd60e51b815260206004820152602660248201527f416464726573733a20696e73756666696369656e742062616c616e636520666f6044820152651c8818d85b1b60d21b6064820152608401610705565b5f5f866001600160a01b031685876040516125679190612d30565b5f6040518083038185875af1925050503d805f81146125a1576040519150601f19603f3d011682016040523d82523d5f602084013e6125a6565b606091505b50915091506125b7878383876125c2565b979650505050505050565b606083156126305782515f03612629576001600160a01b0385163b6126295760405162461bcd60e51b815260206004820152601d60248201527f416464726573733a2063616c6c20746f206e6f6e2d636f6e74726163740000006044820152606401610705565b50816122aa565b6122aa83838151156126455781518083602001fd5b8060405162461bcd60e51b81526004016107059190612d4b565b604051806120000160405280610100906020820280368337509192915050565b80356001600160401b0381168114612695575f5ffd5b919050565b5f5f5f606084860312156126ac575f5ffd5b6126b58461267f565b92506126c36020850161267f565b91506126d16040850161267f565b90509250925092565b6001600160a01b038116811461078a575f5ffd5b5f602082840312156126fe575f5ffd5b8135612709816126da565b9392505050565b803563ffffffff81168114612695575f5ffd5b5f60a0828403121561203c575f5ffd5b5f5f5f5f5f5f6101208789031215612749575f5ffd5b6127528761267f565b95506020870135945061276760408801612710565b93506127768860608901612723565b92506101008701356001600160401b03811115612791575f5ffd5b8701601f810189136127a1575f5ffd5b80356001600160401b038111156127b6575f5ffd5b8960208260051b84010111156127ca575f5ffd5b60208201935080925050509295509295509295565b634e487b7160e01b5f52604160045260245ffd5b5f5f60408385031215612804575f5ffd5b823561280f816126da565b915060208301356001600160401b03811115612829575f5ffd5b8301601f81018513612839575f5ffd5b80356001600160401b03811115612852576128526127df565b604051601f8201601f19908116603f011681016001600160401b0381118282101715612880576128806127df565b604052818152828201602001871015612897575f5ffd5b816020840160208301375f602083830101528093505050509250929050565b5f5f5f60e084860312156128c8575f5ffd5b6128d184612710565b92506128df6020850161267f565b91506126d18560408601612723565b5f5f604083850312156128ff575f5ffd5b6129088361267f565b915061291660208401612710565b90509250929050565b5f5f5f60608486031215612931575f5ffd5b83356126b5816126da565b5f5f5f5f6080858703121561294f575f5ffd5b84359350602085013592506129666040860161267f565b915061297460608601612710565b905092959194509250565b5f5f5f5f6101008587031215612993575f5ffd5b61299d8686612723565b93506129ab60a0860161267f565b92506129b960c0860161267f565b915061297460e08601612710565b5f602082840312156129d7575f5ffd5b5035919050565b5f5f604083850312156129ef575f5ffd5b82356129fa816126da565b91506020830135612a0a816126da565b809150509250929050565b5f5f5f5f6101008587031215612a29575f5ffd5b612a328561267f565b935060208501359250612a4760408601612710565b91506129748660608701612723565b6020808252602c908201527f46756e6374696f6e206d7573742062652063616c6c6564207468726f7567682060408201526b19195b1959d85d1958d85b1b60a21b606082015260800190565b6020808252602c908201527f46756e6374696f6e206d7573742062652063616c6c6564207468726f7567682060408201526b6163746976652070726f787960a01b606082015260800190565b5f60208284031215612afe575f5ffd5b611c7482612710565b5f60208284031215612b17575f5ffd5b813560ff81168114612709575f5ffd5b634e487b7160e01b5f52601160045260245ffd5b81810381811115611c7757611c77612b27565b602080825281018290525f6001600160fb1b03831115612b6c575f5ffd5b8260051b80856040850137919091016040019392505050565b6001600160401b038181168382160290811690818114612ba757612ba7612b27565b5092915050565b6001600160401b038281168282160390811115611c7757611c77612b27565b5f60208284031215612bdd575f5ffd5b611c748261267f565b80820180821115611c7757611c77612b27565b5f60208284031215612c09575f5ffd5b5051919050565b634e487b7160e01b5f52601260045260245ffd5b5f82612c3257612c32612c10565b500490565b8082028115828204841417611c7757611c77612b27565b6020808252602b908201527f496e697469616c697a61626c653a20636f6e7472616374206973206e6f74206960408201526a6e697469616c697a696e6760a81b606082015260800190565b634e487b7160e01b5f52603260045260245ffd5b5f82612cbb57612cbb612c10565b500690565b5f60208284031215612cd0575f5ffd5b8151612709816126da565b5f60208284031215612ceb575f5ffd5b81518015158114612709575f5ffd5b634e487b7160e01b5f52600160045260245ffd5b5f5b83811015612d28578181015183820152602001612d10565b50505f910152565b5f8251612d41818460208701612d0e565b9190910192915050565b602081525f8251806020840152612d69816040850160208701612d0e565b601f01601f1916919091016040019291505056fe360894a13ba1a3210667c828492db98dca3e2076cc3735a920a3ca505d382bbc416464726573733a206c6f772d6c6576656c2064656c65676174652063616c6c206661696c6564a264697066735822122080203c3f112228d497c8fbc7bec10359ddec6cf1ad16b1d556e17b08dd27b49464736f6c634300081b0033","linkReferences":{}},"methodIdentifiers":{"GOLDEN_TOUCH_ADDRESS()":"9ee512f2","acceptOwnership()":"79ba5097","adjustExcess(uint64,uint64,uint64)":"136dc4a8","anchor(bytes32,bytes32,uint64,uint32)":"da69d3db","anchorV2(uint64,bytes32,uint32,(uint8,uint8,uint32,uint64,uint32))":"fd85eb2d","anchorV3(uint64,bytes32,uint32,(uint8,uint8,uint32,uint64,uint32),bytes32[])":"48080a45","calculateBaseFee((uint8,uint8,uint32,uint64,uint32),uint64,uint64,uint32)":"e902461a","getBasefee(uint64,uint32)":"a7e022d1","getBasefeeV2(uint32,uint64,(uint8,uint8,uint32,uint64,uint32))":"893f5460","getBlockHash(uint256)":"ee82ac5e","impl()":"8abf6077","inNonReentrant()":"3075db56","init(address,uint64,uint64)":"b310e9e9","isOnL1()":"a4b23554","l1ChainId()":"12622e5b","lastSyncedBlock()":"33d5ac9b","owner()":"8da5cb5b","pacayaForkHeight()":"ba9f41e8","parentGasExcess()":"b8c7b30c","parentGasTarget()":"a7137c0f","parentTimestamp()":"539b8ade","pause()":"8456cb59","paused()":"5c975abb","pendingOwner()":"e30c3978","proxiableUUID()":"52d1902d","publicInputHash()":"dac5df78","renounceOwnership()":"715018a6","resolver()":"04f3bcec","signalService()":"62d09453","skipFeeCheck()":"2f980473","transferOwnership(address)":"f2fde38b","unpause()":"3f4ba83a","upgradeTo(address)":"3659cfe6","upgradeToAndCall(address,bytes)":"4f1ef286","withdraw(address,address)":"f940e385"},"storageLayout":{"storage":[{"astId":12475,"contract":"contracts/layer2/based/TaikoAnchor.sol:TaikoAnchor","label":"_initialized","offset":0,"slot":"0","type":"t_uint8"},{"astId":12478,"contract":"contracts/layer2/based/TaikoAnchor.sol:TaikoAnchor","label":"_initializing","offset":1,"slot":"0","type":"t_bool"},{"astId":17309,"contract":"contracts/layer2/based/TaikoAnchor.sol:TaikoAnchor","label":"__gap","offset":0,"slot":"1","type":"t_array(t_uint256)50_storage"},{"astId":12220,"contract":"contracts/layer2/based/TaikoAnchor.sol:TaikoAnchor","label":"_owner","offset":0,"slot":"51","type":"t_address"},{"astId":12340,"contract":"contracts/layer2/based/TaikoAnchor.sol:TaikoAnchor","label":"__gap","offset":0,"slot":"52","type":"t_array(t_uint256)49_storage"},{"astId":12113,"contract":"contracts/layer2/based/TaikoAnchor.sol:TaikoAnchor","label":"_pendingOwner","offset":0,"slot":"101","type":"t_address"},{"astId":12207,"contract":"contracts/layer2/based/TaikoAnchor.sol:TaikoAnchor","label":"__gap","offset":0,"slot":"102","type":"t_array(t_uint256)49_storage"},{"astId":4634,"contract":"contracts/layer2/based/TaikoAnchor.sol:TaikoAnchor","label":"__gapFromOldAddressResolver","offset":0,"slot":"151","type":"t_array(t_uint256)50_storage"},{"astId":4637,"contract":"contracts/layer2/based/TaikoAnchor.sol:TaikoAnchor","label":"__reentry","offset":0,"slot":"201","type":"t_uint8"},{"astId":4639,"contract":"contracts/layer2/based/TaikoAnchor.sol:TaikoAnchor","label":"__paused","offset":1,"slot":"201","type":"t_uint8"},{"astId":4643,"contract":"contracts/layer2/based/TaikoAnchor.sol:TaikoAnchor","label":"__gap","offset":0,"slot":"202","type":"t_array(t_uint256)49_storage"},{"astId":1421,"contract":"contracts/layer2/based/TaikoAnchor.sol:TaikoAnchor","label":"_blockhashes","offset":0,"slot":"251","type":"t_mapping(t_uint256,t_bytes32)"},{"astId":1424,"contract":"contracts/layer2/based/TaikoAnchor.sol:TaikoAnchor","label":"publicInputHash","offset":0,"slot":"252","type":"t_bytes32"},{"astId":1427,"contract":"contracts/layer2/based/TaikoAnchor.sol:TaikoAnchor","label":"parentGasExcess","offset":0,"slot":"253","type":"t_uint64"},{"astId":1430,"contract":"contracts/layer2/based/TaikoAnchor.sol:TaikoAnchor","label":"lastSyncedBlock","offset":8,"slot":"253","type":"t_uint64"},{"astId":1433,"contract":"contracts/layer2/based/TaikoAnchor.sol:TaikoAnchor","label":"parentTimestamp","offset":16,"slot":"253","type":"t_uint64"},{"astId":1436,"contract":"contracts/layer2/based/TaikoAnchor.sol:TaikoAnchor","label":"parentGasTarget","offset":24,"slot":"253","type":"t_uint64"},{"astId":1439,"contract":"contracts/layer2/based/TaikoAnchor.sol:TaikoAnchor","label":"l1ChainId","offset":0,"slot":"254","type":"t_uint64"},{"astId":1443,"contract":"contracts/layer2/based/TaikoAnchor.sol:TaikoAnchor","label":"__gap","offset":0,"slot":"255","type":"t_array(t_uint256)46_storage"}],"types":{"t_address":{"encoding":"inplace","label":"address","numberOfBytes":"20"},"t_array(t_uint256)46_storage":{"encoding":"inplace","label":"uint256[46]","numberOfBytes":"1472","base":"t_uint256"},"t_array(t_uint256)49_storage":{"encoding":"inplace","label":"uint256[49]","numberOfBytes":"1568","base":"t_uint256"},"t_array(t_uint256)50_storage":{"encoding":"inplace","label":"uint256[50]","numberOfBytes":"1600","base":"t_uint256"},"t_bool":{"encoding":"inplace","label":"bool","numberOfBytes":"1"},"t_bytes32":{"encoding":"inplace","label":"bytes32","numberOfBytes":"32"},"t_mapping(t_uint256,t_bytes32)":{"encoding":"mapping","key":"t_uint256","label":"mapping(uint256 => bytes32)","numberOfBytes":"32","value":"t_bytes32"},"t_uint256":{"encoding":"inplace","label":"uint256","numberOfBytes":"32"},"t_uint64":{"encoding":"inplace","label":"uint64","numberOfBytes":"8"},"t_uint8":{"encoding":"inplace","label":"uint8","numberOfBytes":"1"}}},"id":6}